{
  "contractName": "MatchContract",
  "abi": [
    {
      "inputs": [
        {
          "internalType": "contract Oracle",
          "name": "_oracle",
          "type": "address"
        }
      ],
      "payable": false,
      "stateMutability": "nonpayable",
      "type": "constructor"
    },
    {
      "anonymous": false,
      "inputs": [
        {
          "indexed": true,
          "internalType": "address",
          "name": "previousOwner",
          "type": "address"
        },
        {
          "indexed": true,
          "internalType": "address",
          "name": "newOwner",
          "type": "address"
        }
      ],
      "name": "OwnershipTransferred",
      "type": "event"
    },
    {
      "constant": true,
      "inputs": [],
      "name": "owner",
      "outputs": [
        {
          "internalType": "address",
          "name": "",
          "type": "address"
        }
      ],
      "payable": false,
      "stateMutability": "view",
      "type": "function"
    },
    {
      "constant": false,
      "inputs": [
        {
          "internalType": "address",
          "name": "newOwner",
          "type": "address"
        }
      ],
      "name": "transferOwnership",
      "outputs": [],
      "payable": false,
      "stateMutability": "nonpayable",
      "type": "function"
    },
    {
      "constant": false,
      "inputs": [
        {
          "internalType": "bytes32",
          "name": "_matchId",
          "type": "bytes32"
        }
      ],
      "name": "placeBet",
      "outputs": [],
      "payable": true,
      "stateMutability": "payable",
      "type": "function"
    }
  ],
  "bytecode": "0x608060405234801561001057600080fd5b506040516104603803806104608339818101604052602081101561003357600080fd5b8101908080519060200190929190505050336000806101000a81548173ffffffffffffffffffffffffffffffffffffffff021916908373ffffffffffffffffffffffffffffffffffffffff16021790555080600360006101000a81548173ffffffffffffffffffffffffffffffffffffffff021916908373ffffffffffffffffffffffffffffffffffffffff16021790555033600460006101000a81548173ffffffffffffffffffffffffffffffffffffffff021916908373ffffffffffffffffffffffffffffffffffffffff1602179055505061034a806101166000396000f3fe6080604052600436106100345760003560e01c8063042b5fed146100395780638da5cb5b14610067578063f2fde38b146100be575b600080fd5b6100656004803603602081101561004f57600080fd5b810190808035906020019092919050505061010f565b005b34801561007357600080fd5b5061007c61019f565b604051808273ffffffffffffffffffffffffffffffffffffffff1673ffffffffffffffffffffffffffffffffffffffff16815260200191505060405180910390f35b3480156100ca57600080fd5b5061010d600480360360208110156100e157600080fd5b81019080803573ffffffffffffffffffffffffffffffffffffffff1690602001909291905050506101c4565b005b600360009054906101000a900473ffffffffffffffffffffffffffffffffffffffff1673ffffffffffffffffffffffffffffffffffffffff166373f9644b826040518263ffffffff1660e01b815260040180828152602001915050600060405180830381600087803b15801561018457600080fd5b505af1158015610198573d6000803e3d6000fd5b5050505050565b6000809054906101000a900473ffffffffffffffffffffffffffffffffffffffff1681565b6000809054906101000a900473ffffffffffffffffffffffffffffffffffffffff1673ffffffffffffffffffffffffffffffffffffffff163373ffffffffffffffffffffffffffffffffffffffff161461021d57600080fd5b600073ffffffffffffffffffffffffffffffffffffffff168173ffffffffffffffffffffffffffffffffffffffff16141561025757600080fd5b8073ffffffffffffffffffffffffffffffffffffffff166000809054906101000a900473ffffffffffffffffffffffffffffffffffffffff1673ffffffffffffffffffffffffffffffffffffffff167f8be0079c531659141344cd1fd0a4f28419497f9722a3daafe3b4186f6b6457e060405160405180910390a3806000806101000a81548173ffffffffffffffffffffffffffffffffffffffff021916908373ffffffffffffffffffffffffffffffffffffffff1602179055505056fea265627a7a72315820a7b46410cfe3a40959b9ee03224d732912cdb56aaaba3f54cf4fb096f143155864736f6c63430005100032",
  "source": "pragma solidity >=0.4.22 <0.8.0;\r\n\r\nimport './Ownable.sol';\r\nimport './Oracle.sol';\r\nimport './UGameToken.sol';\r\n\r\ncontract MatchContract is Ownable {\r\n    mapping(address => bytes32[]) private userToBets;\r\n    mapping(bytes32 => Bet[]) private matchToBets;\r\n\r\n    struct Bet {\r\n        address user;\r\n        bytes32 matchId;\r\n        uint amount; \r\n        uint8 side; \r\n    }\r\n\r\n    Oracle internal oracle;    \r\n    address payable internal admin;\r\n\r\n    constructor(Oracle _oracle) public {\r\n        oracle = _oracle;\r\n        admin = msg.sender;\r\n    }\r\n    \r\n    // function getMatch(bytes32 _matchId) public view returns (\r\n    //     bytes32 id,\r\n    //     string memory name, \r\n    //     address[] memory participants,\r\n    //     uint8 participantCount,\r\n    //     uint date, \r\n    //     Oracle.MatchOutcome outcome, \r\n    //     int8 winner) { \r\n\r\n    //     return oracle.getMatch(_matchId); \r\n    // }\r\n\r\n    function placeBet(bytes32 _matchId) public payable {\r\n        oracle.payForBet(_matchId);\r\n    }\r\n\r\n}",
  "sourcePath": "D:/git/UGameTokenBlockchain/contracts/MatchContract.sol",
  "compiler": {
    "name": "solc",
    "version": "0.5.16+commit.9c3226ce.Emscripten.clang"
  },
  "schemaVersion": "3.3.2",
  "updatedAt": "2020-11-22T14:40:53.312Z",
  "devdoc": {
    "methods": {}
  },
  "userdoc": {
    "methods": {}
  }
}