{
  "contractName": "Oracle",
  "abi": [
    {
      "constant": true,
      "inputs": [],
      "name": "tokenCotract",
      "outputs": [
        {
          "name": "",
          "type": "address"
        }
      ],
      "payable": false,
      "stateMutability": "view",
      "type": "function"
    },
    {
      "constant": true,
      "inputs": [],
      "name": "owner",
      "outputs": [
        {
          "name": "",
          "type": "address"
        }
      ],
      "payable": false,
      "stateMutability": "view",
      "type": "function"
    },
    {
      "constant": false,
      "inputs": [
        {
          "name": "newOwner",
          "type": "address"
        }
      ],
      "name": "transferOwnership",
      "outputs": [],
      "payable": false,
      "stateMutability": "nonpayable",
      "type": "function"
    },
    {
      "inputs": [
        {
          "name": "_tokenContract",
          "type": "address"
        }
      ],
      "payable": false,
      "stateMutability": "nonpayable",
      "type": "constructor"
    },
    {
      "anonymous": false,
      "inputs": [
        {
          "indexed": true,
          "name": "_by",
          "type": "address"
        },
        {
          "indexed": false,
          "name": "_player1",
          "type": "address"
        },
        {
          "indexed": false,
          "name": "_player2",
          "type": "address"
        },
        {
          "indexed": true,
          "name": "_matchId",
          "type": "bytes32"
        },
        {
          "indexed": false,
          "name": "_matchValue",
          "type": "uint256"
        }
      ],
      "name": "MatchAdded",
      "type": "event"
    },
    {
      "anonymous": false,
      "inputs": [
        {
          "indexed": true,
          "name": "_by",
          "type": "address"
        },
        {
          "indexed": true,
          "name": "_matchId",
          "type": "bytes32"
        },
        {
          "indexed": false,
          "name": "_winner",
          "type": "address"
        }
      ],
      "name": "MatchFinished",
      "type": "event"
    },
    {
      "anonymous": false,
      "inputs": [
        {
          "indexed": true,
          "name": "id",
          "type": "bytes32"
        }
      ],
      "name": "ChainlinkRequested",
      "type": "event"
    },
    {
      "anonymous": false,
      "inputs": [
        {
          "indexed": true,
          "name": "id",
          "type": "bytes32"
        }
      ],
      "name": "ChainlinkFulfilled",
      "type": "event"
    },
    {
      "anonymous": false,
      "inputs": [
        {
          "indexed": true,
          "name": "id",
          "type": "bytes32"
        }
      ],
      "name": "ChainlinkCancelled",
      "type": "event"
    },
    {
      "anonymous": false,
      "inputs": [
        {
          "indexed": true,
          "name": "previousOwner",
          "type": "address"
        },
        {
          "indexed": true,
          "name": "newOwner",
          "type": "address"
        }
      ],
      "name": "OwnershipTransferred",
      "type": "event"
    },
    {
      "constant": true,
      "inputs": [
        {
          "name": "_matchId",
          "type": "bytes32"
        }
      ],
      "name": "getMatch",
      "outputs": [
        {
          "name": "id",
          "type": "bytes32"
        },
        {
          "name": "player1",
          "type": "address"
        },
        {
          "name": "player2",
          "type": "address"
        },
        {
          "name": "outcome",
          "type": "uint8"
        },
        {
          "name": "matchValue",
          "type": "uint256"
        },
        {
          "name": "winner",
          "type": "address"
        },
        {
          "name": "player1Payed",
          "type": "bool"
        },
        {
          "name": "player2Payed",
          "type": "bool"
        }
      ],
      "payable": false,
      "stateMutability": "view",
      "type": "function"
    },
    {
      "constant": true,
      "inputs": [],
      "name": "getMatches",
      "outputs": [
        {
          "name": "ids",
          "type": "bytes32[]"
        }
      ],
      "payable": false,
      "stateMutability": "view",
      "type": "function"
    },
    {
      "constant": true,
      "inputs": [
        {
          "name": "_matchId",
          "type": "bytes32"
        }
      ],
      "name": "matchExists",
      "outputs": [
        {
          "name": "",
          "type": "bool"
        }
      ],
      "payable": false,
      "stateMutability": "view",
      "type": "function"
    },
    {
      "constant": false,
      "inputs": [
        {
          "name": "_id",
          "type": "bytes32"
        },
        {
          "name": "_player1",
          "type": "address"
        },
        {
          "name": "_player2",
          "type": "address"
        },
        {
          "name": "_matchValue",
          "type": "uint256"
        }
      ],
      "name": "addMatch",
      "outputs": [],
      "payable": false,
      "stateMutability": "nonpayable",
      "type": "function"
    },
    {
      "constant": false,
      "inputs": [
        {
          "name": "_id",
          "type": "string"
        },
        {
          "name": "_player1",
          "type": "address"
        },
        {
          "name": "_player2",
          "type": "address"
        },
        {
          "name": "_matchValue",
          "type": "uint256"
        }
      ],
      "name": "addMatchByid",
      "outputs": [],
      "payable": false,
      "stateMutability": "nonpayable",
      "type": "function"
    },
    {
      "constant": true,
      "inputs": [
        {
          "name": "_matchId",
          "type": "bytes32"
        },
        {
          "name": "_player",
          "type": "address"
        }
      ],
      "name": "playerInMatchAndNotPayed",
      "outputs": [
        {
          "name": "",
          "type": "bool"
        }
      ],
      "payable": false,
      "stateMutability": "view",
      "type": "function"
    },
    {
      "constant": false,
      "inputs": [
        {
          "name": "_matchId",
          "type": "bytes32"
        }
      ],
      "name": "payForBet",
      "outputs": [],
      "payable": true,
      "stateMutability": "payable",
      "type": "function"
    },
    {
      "constant": false,
      "inputs": [
        {
          "name": "_matchId",
          "type": "string"
        },
        {
          "name": "_winner",
          "type": "address"
        }
      ],
      "name": "updateOracle",
      "outputs": [],
      "payable": false,
      "stateMutability": "nonpayable",
      "type": "function"
    }
  ],
  "bytecode": "0x6080604052600160055534801561001557600080fd5b50604051602080611b0f8339810180604052602081101561003557600080fd5b8101908080519060200190929190505050336000806101000a81548173ffffffffffffffffffffffffffffffffffffffff021916908373ffffffffffffffffffffffffffffffffffffffff16021790555080600960006101000a81548173ffffffffffffffffffffffffffffffffffffffff021916908373ffffffffffffffffffffffffffffffffffffffff16021790555033600a60006101000a81548173ffffffffffffffffffffffffffffffffffffffff021916908373ffffffffffffffffffffffffffffffffffffffff160217905550506119f7806101186000396000f3fe6080604052600436106100af576000357c0100000000000000000000000000000000000000000000000000000000900463ffffffff16806324b8b845146100b45780632c70120e1461019c5780635af4344d146102085780636a2c0bc41461031a57806373f9644b1461037157806389acb32a1461039f5780638da5cb5b14610424578063a82523241461047b578063a9345240146104ee578063f2fde38b14610541578063fcc6077d14610592575b600080fd5b3480156100c057600080fd5b5061019a600480360360408110156100d757600080fd5b81019080803590602001906401000000008111156100f457600080fd5b82018360208201111561010657600080fd5b8035906020019184600183028401116401000000008311171561012857600080fd5b91908080601f016020809104026020016040519081016040528093929190818152602001838380828437600081840152601f19601f820116905080830192505050505050509192919290803573ffffffffffffffffffffffffffffffffffffffff1690602001909291905050506106ac565b005b3480156101a857600080fd5b506101b1610dca565b6040518080602001828103825283818151815260200191508051906020019060200280838360005b838110156101f45780820151818401526020810190506101d9565b505050509050019250505060405180910390f35b34801561021457600080fd5b506103186004803603608081101561022b57600080fd5b810190808035906020019064010000000081111561024857600080fd5b82018360208201111561025a57600080fd5b8035906020019184600183028401116401000000008311171561027c57600080fd5b91908080601f016020809104026020016040519081016040528093929190818152602001838380828437600081840152601f19601f820116905080830192505050505050509192919290803573ffffffffffffffffffffffffffffffffffffffff169060200190929190803573ffffffffffffffffffffffffffffffffffffffff16906020019092919080359060200190929190505050610e87565b005b34801561032657600080fd5b5061032f610f12565b604051808273ffffffffffffffffffffffffffffffffffffffff1673ffffffffffffffffffffffffffffffffffffffff16815260200191505060405180910390f35b61039d6004803603602081101561038757600080fd5b8101908080359060200190929190505050610f38565b005b3480156103ab57600080fd5b50610422600480360360808110156103c257600080fd5b8101908080359060200190929190803573ffffffffffffffffffffffffffffffffffffffff169060200190929190803573ffffffffffffffffffffffffffffffffffffffff169060200190929190803590602001909291905050506111e0565b005b34801561043057600080fd5b506104396114e6565b604051808273ffffffffffffffffffffffffffffffffffffffff1673ffffffffffffffffffffffffffffffffffffffff16815260200191505060405180910390f35b34801561048757600080fd5b506104d46004803603604081101561049e57600080fd5b8101908080359060200190929190803573ffffffffffffffffffffffffffffffffffffffff16906020019092919050505061150b565b604051808215151515815260200191505060405180910390f35b3480156104fa57600080fd5b506105276004803603602081101561051157600080fd5b8101908080359060200190929190505050611698565b604051808215151515815260200191505060405180910390f35b34801561054d57600080fd5b506105906004803603602081101561056457600080fd5b81019080803573ffffffffffffffffffffffffffffffffffffffff1690602001909291905050506116d5565b005b34801561059e57600080fd5b506105cb600480360360208110156105b557600080fd5b810190808035906020019092919050505061182a565b604051808981526020018873ffffffffffffffffffffffffffffffffffffffff1673ffffffffffffffffffffffffffffffffffffffff1681526020018773ffffffffffffffffffffffffffffffffffffffff1673ffffffffffffffffffffffffffffffffffffffff16815260200186600181111561064557fe5b60ff1681526020018581526020018473ffffffffffffffffffffffffffffffffffffffff1673ffffffffffffffffffffffffffffffffffffffff16815260200183151515158152602001821515151581526020019850505050505050505060405180910390f35b6000826040516020018082805190602001908083835b6020831015156106e757805182526020820191506020810190506020830392506106c2565b6001836020036101000a03801982511681845116808217855250505050505090500191505060405160208183030381529060405280519060200120905061072d81611698565b151561073857600080fd5b6000600860008381526020019081526020016000205490506000600181111561075d57fe5b60078281548110151561076c57fe5b906000526020600020906005020160020160149054906101000a900460ff16600181111561079657fe5b1415156107a257600080fd5b6007818154811015156107b157fe5b906000526020600020906005020160010160009054906101000a900473ffffffffffffffffffffffffffffffffffffffff1673ffffffffffffffffffffffffffffffffffffffff168373ffffffffffffffffffffffffffffffffffffffff161480610887575060078181548110151561082657fe5b906000526020600020906005020160020160009054906101000a900473ffffffffffffffffffffffffffffffffffffffff1673ffffffffffffffffffffffffffffffffffffffff168373ffffffffffffffffffffffffffffffffffffffff16145b15610d56578260078281548110151561089c57fe5b906000526020600020906005020160040160006101000a81548173ffffffffffffffffffffffffffffffffffffffff021916908373ffffffffffffffffffffffffffffffffffffffff16021790555060006007828154811015156108fc57fe5b906000526020600020906005020160020160146101000a81548160ff0219169083600181111561092857fe5b021790555060078181548110151561093c57fe5b906000526020600020906005020160010160009054906101000a900473ffffffffffffffffffffffffffffffffffffffff1673ffffffffffffffffffffffffffffffffffffffff168373ffffffffffffffffffffffffffffffffffffffff161415610b7b57600960009054906101000a900473ffffffffffffffffffffffffffffffffffffffff1673ffffffffffffffffffffffffffffffffffffffff166323b872dd6007838154811015156109ee57fe5b906000526020600020906005020160010160009054906101000a900473ffffffffffffffffffffffffffffffffffffffff16600784815481101515610a2f57fe5b906000526020600020906005020160020160009054906101000a900473ffffffffffffffffffffffffffffffffffffffff16600785815481101515610a7057fe5b9060005260206000209060050201600301546040518463ffffffff167c0100000000000000000000000000000000000000000000000000000000028152600401808473ffffffffffffffffffffffffffffffffffffffff1673ffffffffffffffffffffffffffffffffffffffff1681526020018373ffffffffffffffffffffffffffffffffffffffff1673ffffffffffffffffffffffffffffffffffffffff1681526020018281526020019350505050602060405180830381600087803b158015610b3a57600080fd5b505af1158015610b4e573d6000803e3d6000fd5b505050506040513d6020811015610b6457600080fd5b810190808051906020019092919050505050610d51565b600960009054906101000a900473ffffffffffffffffffffffffffffffffffffffff1673ffffffffffffffffffffffffffffffffffffffff166323b872dd600783815481101515610bc857fe5b906000526020600020906005020160020160009054906101000a900473ffffffffffffffffffffffffffffffffffffffff16600784815481101515610c0957fe5b906000526020600020906005020160010160009054906101000a900473ffffffffffffffffffffffffffffffffffffffff16600785815481101515610c4a57fe5b9060005260206000209060050201600301546040518463ffffffff167c0100000000000000000000000000000000000000000000000000000000028152600401808473ffffffffffffffffffffffffffffffffffffffff1673ffffffffffffffffffffffffffffffffffffffff1681526020018373ffffffffffffffffffffffffffffffffffffffff1673ffffffffffffffffffffffffffffffffffffffff1681526020018281526020019350505050602060405180830381600087803b158015610d1457600080fd5b505af1158015610d28573d6000803e3d6000fd5b505050506040513d6020811015610d3e57600080fd5b8101908080519060200190929190505050505b610dc4565b6040517f08c379a00000000000000000000000000000000000000000000000000000000081526004018080602001828103825260168152602001807f57696e6e6572206e6f74207061727469636970616e740000000000000000000081525060200191505060405180910390fd5b50505050565b6060600780549050604051908082528060200260200182016040528015610e005781602001602082028038833980820191505090505b50905060006007805490501115610e81576000809050600060078054905090505b6000811115610e7e57600760018203815481101515610e3c57fe5b9060005260206000209060050201600001548383806001019450815181101515610e6257fe5b9060200190602002018181525050808060019003915050610e21565b50505b80905090565b6000846040516020018082805190602001908083835b602083101515610ec25780518252602082019150602081019050602083039250610e9d565b6001836020036101000a038019825116818451168082178552505050505050905001915050604051602081830303815290604052805190602001209050610f0b818585856111e0565b5050505050565b600960009054906101000a900473ffffffffffffffffffffffffffffffffffffffff1681565b610f4181611698565b1515610f4c57600080fd5b610f56813361150b565b1515610f6157600080fd5b600060086000838152602001908152602001600020549050600960009054906101000a900473ffffffffffffffffffffffffffffffffffffffff1673ffffffffffffffffffffffffffffffffffffffff166323b872dd33600a60009054906101000a900473ffffffffffffffffffffffffffffffffffffffff16600785815481101515610fea57fe5b9060005260206000209060050201600301546040518463ffffffff167c0100000000000000000000000000000000000000000000000000000000028152600401808473ffffffffffffffffffffffffffffffffffffffff1673ffffffffffffffffffffffffffffffffffffffff1681526020018373ffffffffffffffffffffffffffffffffffffffff1673ffffffffffffffffffffffffffffffffffffffff1681526020018281526020019350505050602060405180830381600087803b1580156110b457600080fd5b505af11580156110c8573d6000803e3d6000fd5b505050506040513d60208110156110de57600080fd5b8101908080519060200190929190505050506007818154811015156110ff57fe5b906000526020600020906005020160010160009054906101000a900473ffffffffffffffffffffffffffffffffffffffff1673ffffffffffffffffffffffffffffffffffffffff163373ffffffffffffffffffffffffffffffffffffffff1614156111a257600160078281548110151561117557fe5b906000526020600020906005020160040160146101000a81548160ff0219169083151502179055506111dc565b60016007828154811015156111b357fe5b906000526020600020906005020160040160156101000a81548160ff0219169083151502179055505b5050565b6111e984611698565b1515156111f557600080fd5b600060016007610100604051908101604052808881526020018773ffffffffffffffffffffffffffffffffffffffff1681526020018673ffffffffffffffffffffffffffffffffffffffff1681526020016000600181111561125357fe5b8152602001858152602001600073ffffffffffffffffffffffffffffffffffffffff16815260200160001515815260200160001515815250908060018154018082558091505090600182039060005260206000209060050201600090919290919091506000820151816000015560208201518160010160006101000a81548173ffffffffffffffffffffffffffffffffffffffff021916908373ffffffffffffffffffffffffffffffffffffffff16021790555060408201518160020160006101000a81548173ffffffffffffffffffffffffffffffffffffffff021916908373ffffffffffffffffffffffffffffffffffffffff16021790555060608201518160020160146101000a81548160ff0219169083600181111561137257fe5b02179055506080820151816003015560a08201518160040160006101000a81548173ffffffffffffffffffffffffffffffffffffffff021916908373ffffffffffffffffffffffffffffffffffffffff16021790555060c08201518160040160146101000a81548160ff02191690831515021790555060e08201518160040160156101000a81548160ff0219169083151502179055505050039050600181016008600087815260200190815260200160002081905550843373ffffffffffffffffffffffffffffffffffffffff167f10cc98c26c76bf6470a328df31ee0ae7797a6a43eeed3cfe8f7518b255b0f130868686604051808473ffffffffffffffffffffffffffffffffffffffff1673ffffffffffffffffffffffffffffffffffffffff1681526020018373ffffffffffffffffffffffffffffffffffffffff1673ffffffffffffffffffffffffffffffffffffffff168152602001828152602001935050505060405180910390a35050505050565b6000809054906101000a900473ffffffffffffffffffffffffffffffffffffffff1681565b60008060078054905014156115235760009050611692565b6000600860008581526020019081526020016000205490508273ffffffffffffffffffffffffffffffffffffffff1660078281548110151561156157fe5b906000526020600020906005020160010160009054906101000a900473ffffffffffffffffffffffffffffffffffffffff1673ffffffffffffffffffffffffffffffffffffffff161480156115e157506007818154811015156115c057fe5b906000526020600020906005020160040160149054906101000a900460ff16155b8061168e57508273ffffffffffffffffffffffffffffffffffffffff1660078281548110151561160d57fe5b906000526020600020906005020160020160009054906101000a900473ffffffffffffffffffffffffffffffffffffffff1673ffffffffffffffffffffffffffffffffffffffff1614801561168d575060078181548110151561166c57fe5b906000526020600020906005020160040160159054906101000a900460ff16155b5b9150505b92915050565b60008060078054905014156116b057600090506116d0565b600060086000848152602001908152602001600020549050600081119150505b919050565b6000809054906101000a900473ffffffffffffffffffffffffffffffffffffffff1673ffffffffffffffffffffffffffffffffffffffff163373ffffffffffffffffffffffffffffffffffffffff1614151561173057600080fd5b600073ffffffffffffffffffffffffffffffffffffffff168173ffffffffffffffffffffffffffffffffffffffff161415151561176c57600080fd5b8073ffffffffffffffffffffffffffffffffffffffff166000809054906101000a900473ffffffffffffffffffffffffffffffffffffffff1673ffffffffffffffffffffffffffffffffffffffff167f8be0079c531659141344cd1fd0a4f28419497f9722a3daafe3b4186f6b6457e060405160405180910390a3806000806101000a81548173ffffffffffffffffffffffffffffffffffffffff021916908373ffffffffffffffffffffffffffffffffffffffff16021790555050565b60008060008060008060008061183f89611698565b1561193257600060076118518b6119ab565b81548110151561185d57fe5b9060005260206000209060050201905080600001548160010160009054906101000a900473ffffffffffffffffffffffffffffffffffffffff168260020160009054906101000a900473ffffffffffffffffffffffffffffffffffffffff168360020160149054906101000a900460ff1684600301548560040160009054906101000a900473ffffffffffffffffffffffffffffffffffffffff168660040160149054906101000a900460ff168760040160159054906101000a900460ff1698509850985098509850985098509850506119a0565b6040517f08c379a00000000000000000000000000000000000000000000000000000000081526004018080602001828103825260158152602001807f4d61746368206e6f7420666f756e64206279206964000000000000000000000081525060200191505060405180910390fd5b919395975091939597565b60006001600860008481526020019081526020016000205403905091905056fea165627a7a7230582064b7d873a6a37562f9292c9f5eb8dd08d00308018396930a74ed39d58fabc2e90029",
  "source": "pragma solidity >=0.4.22 <0.8.0;\r\n\r\nimport './Ownable.sol';\r\nimport \"@chainlink/contracts/src/v0.5/ChainlinkClient.sol\";\r\nimport './UGameToken.sol';\r\n\r\ncontract Oracle is Ownable, ChainlinkClient {\r\n    Match[] matches;\r\n    mapping(bytes32 => uint) matchIdToIndex; \r\n\r\n    event MatchAdded (\r\n        address indexed _by,\r\n        address _player1,\r\n        address _player2,\r\n        bytes32 indexed _matchId,\r\n        uint256 _matchValue\r\n    );\r\n\r\n    event MatchFinished(\r\n        address indexed _by,\r\n        bytes32 indexed _matchId,\r\n        address _winner\r\n    );\r\n\r\n    enum MatchOutcome {\r\n        Planned,\r\n        Finished\r\n    }\r\n\r\n    struct Match {\r\n        bytes32 id;\r\n        address player1;\r\n        address player2;\r\n        MatchOutcome outcome;\r\n        uint256 matchValue;\r\n        address winner;\r\n        bool player1Payed;\r\n        bool player2Payed;\r\n    }\r\n\r\n    UGameToken public tokenCotract;\r\n    address payable internal admin;\r\n\r\n    address private oracle;\r\n    bytes32 private jobId;\r\n    uint256 private fee;\r\n\r\n    constructor(UGameToken _tokenContract) public {\r\n        tokenCotract = _tokenContract;\r\n        admin = msg.sender;\r\n        // setPublicChainlinkToken();\r\n\r\n        // // Change in future!\r\n        // oracle = 0x2f90A6D021db21e1B2A077c5a37B3C7E75D15b7e;\r\n        // jobId = \"29fa9aa13bf1468788b7cc4a500a45b8\";\r\n        // fee = 0.1 * 10 ** 18; \r\n    }\r\n\r\n    function getMatch(bytes32 _matchId) public view returns (bytes32 id,\r\n        address player1,\r\n        address player2,\r\n        MatchOutcome outcome,\r\n        uint256 matchValue,\r\n        address winner,\r\n        bool player1Payed,\r\n        bool player2Payed)\r\n    {\r\n        if (matchExists(_matchId)) {\r\n            Match storage matchFound = matches[_getMatchIndex(_matchId)];\r\n            return (matchFound.id, \r\n                    matchFound.player1, \r\n                    matchFound.player2, \r\n                    matchFound.outcome, \r\n                    matchFound.matchValue, \r\n                    matchFound.winner,\r\n                    matchFound.player1Payed,\r\n                    matchFound.player2Payed); \r\n        }\r\n        else {\r\n            revert('Match not found by id'); \r\n        }\r\n    }\r\n    \r\n    function getMatches() public view returns (bytes32[] memory ids)\r\n    {\r\n        ids = new bytes32[](matches.length); \r\n\r\n        if (matches.length > 0) {\r\n            uint index = 0;\r\n            for (uint n = matches.length; n > 0; n--) {\r\n                ids[index++] = matches[n-1].id;\r\n            }\r\n        }\r\n        \r\n        return ids; \r\n    }\r\n\r\n    function _updateMatches() private {\r\n        // Update\r\n    }\r\n    \r\n    function _getMatchIndex(bytes32 _matchId) private view returns (uint) {\r\n        return matchIdToIndex[_matchId]-1; \r\n    }\r\n\r\n    function matchExists(bytes32 _matchId) public view returns (bool) {\r\n        if (matches.length == 0)\r\n            return false;\r\n        uint index = matchIdToIndex[_matchId]; \r\n        return (index > 0); \r\n    }\r\n\r\n    function addMatch(bytes32 _id, address _player1, address _player2, uint256 _matchValue) public {\r\n        require(!matchExists(_id));\r\n        \r\n        uint newIndex = matches.push(Match(_id, _player1, _player2, MatchOutcome.Planned, _matchValue, address(0x0), false, false)) - 1; \r\n        matchIdToIndex[_id] = newIndex + 1;\r\n        emit MatchAdded(msg.sender, _player1, _player2, _id, _matchValue);\r\n    }\r\n\r\n    function addMatchByid(string memory _id, address _player1, address _player2, uint256 _matchValue) public {\r\n        //require(msg.sender == _player1 || msg.sender == _player2);\r\n        bytes32 genId = keccak256(abi.encodePacked(_id));\r\n        addMatch(genId, _player1, _player2, _matchValue);\r\n    }\r\n\r\n    function playerInMatchAndNotPayed(bytes32 _matchId, address _player) public view returns (bool) {\r\n        if (matches.length == 0)\r\n            return false;\r\n        uint index = matchIdToIndex[_matchId]; \r\n\r\n        return (matches[index].player1 == _player && !matches[index].player1Payed) || (matches[index].player2 == _player && !matches[index].player2Payed);\r\n    }\r\n\r\n    function payForBet(bytes32 _matchId) public payable {\r\n        require(matchExists(_matchId));\r\n        require(playerInMatchAndNotPayed(_matchId, msg.sender));\r\n\r\n        uint index = matchIdToIndex[_matchId]; \r\n\r\n        tokenCotract.transferFrom(msg.sender, admin, matches[index].matchValue);\r\n        if (msg.sender == matches[index].player1) {\r\n            matches[index].player1Payed = true;\r\n        } else {\r\n            matches[index].player2Payed = true;\r\n        }\r\n    }\r\n    // For test only\r\n    function updateOracle(string memory _matchId, address _winner) public {\r\n        bytes32 genId = keccak256(abi.encodePacked(_matchId));\r\n        require(matchExists(genId));\r\n        uint index = matchIdToIndex[genId];\r\n        require(matches[index].outcome == MatchOutcome.Planned); \r\n\r\n        if (_winner == matches[index].player1 || _winner == matches[index].player2) {\r\n            matches[index].winner = _winner;\r\n            matches[index].outcome = MatchOutcome.Planned;\r\n\r\n            if (_winner == matches[index].player1) {\r\n                tokenCotract.transferFrom(matches[index].player1, matches[index].player2, matches[index].matchValue);\r\n            } else {\r\n                tokenCotract.transferFrom(matches[index].player2, matches[index].player1, matches[index].matchValue);\r\n            }\r\n        } else {\r\n            revert('Winner not participant');\r\n        }\r\n    }\r\n}",
  "sourcePath": "C:\\Projects\\ERC20Draft\\contracts\\Oracle.sol",
  "compiler": {
    "name": "solc",
    "version": "0.5.0+commit.1d4f565a.Emscripten.clang"
  },
  "schemaVersion": "3.3.2",
  "updatedAt": "2020-11-22T15:49:50.106Z",
  "networkType": "ethereum",
  "devdoc": {
    "methods": {}
  },
  "userdoc": {
    "methods": {}
  }
}