{
  "contractName": "Oracle",
  "abi": [
    {
      "constant": true,
      "inputs": [],
      "name": "tokenCotract",
      "outputs": [
        {
          "name": "",
          "type": "address"
        }
      ],
      "payable": false,
      "stateMutability": "view",
      "type": "function"
    },
    {
      "inputs": [
        {
          "name": "_tokenContract",
          "type": "address"
        }
      ],
      "payable": false,
      "stateMutability": "nonpayable",
      "type": "constructor"
    },
    {
      "anonymous": false,
      "inputs": [
        {
          "indexed": true,
          "name": "_by",
          "type": "address"
        },
        {
          "indexed": false,
          "name": "_player1",
          "type": "address"
        },
        {
          "indexed": false,
          "name": "_player2",
          "type": "address"
        },
        {
          "indexed": true,
          "name": "_matchId",
          "type": "bytes32"
        },
        {
          "indexed": false,
          "name": "_matchValue",
          "type": "uint256"
        }
      ],
      "name": "MatchAdded",
      "type": "event"
    },
    {
      "anonymous": false,
      "inputs": [
        {
          "indexed": true,
          "name": "_by",
          "type": "address"
        },
        {
          "indexed": true,
          "name": "_matchId",
          "type": "bytes32"
        },
        {
          "indexed": false,
          "name": "_winner",
          "type": "address"
        }
      ],
      "name": "MatchFinished",
      "type": "event"
    },
    {
      "anonymous": false,
      "inputs": [
        {
          "indexed": true,
          "name": "_by",
          "type": "address"
        },
        {
          "indexed": true,
          "name": "_matchId",
          "type": "bytes32"
        }
      ],
      "name": "BetSet",
      "type": "event"
    },
    {
      "constant": true,
      "inputs": [
        {
          "name": "_matchId",
          "type": "bytes32"
        }
      ],
      "name": "getMatch",
      "outputs": [
        {
          "name": "id",
          "type": "bytes32"
        },
        {
          "name": "player1",
          "type": "address"
        },
        {
          "name": "player2",
          "type": "address"
        },
        {
          "name": "outcome",
          "type": "uint8"
        },
        {
          "name": "matchValue",
          "type": "uint256"
        },
        {
          "name": "winner",
          "type": "address"
        },
        {
          "name": "player1Payed",
          "type": "bool"
        },
        {
          "name": "player2Payed",
          "type": "bool"
        }
      ],
      "payable": false,
      "stateMutability": "view",
      "type": "function"
    },
    {
      "constant": true,
      "inputs": [],
      "name": "getMatches",
      "outputs": [
        {
          "name": "ids",
          "type": "bytes32[]"
        }
      ],
      "payable": false,
      "stateMutability": "view",
      "type": "function"
    },
    {
      "constant": true,
      "inputs": [
        {
          "name": "_matchId",
          "type": "bytes32"
        }
      ],
      "name": "matchExists",
      "outputs": [
        {
          "name": "",
          "type": "bool"
        }
      ],
      "payable": false,
      "stateMutability": "view",
      "type": "function"
    },
    {
      "constant": false,
      "inputs": [
        {
          "name": "_id",
          "type": "bytes32"
        },
        {
          "name": "_player1",
          "type": "address"
        },
        {
          "name": "_player2",
          "type": "address"
        },
        {
          "name": "_matchValue",
          "type": "uint256"
        }
      ],
      "name": "addMatch",
      "outputs": [],
      "payable": false,
      "stateMutability": "nonpayable",
      "type": "function"
    },
    {
      "constant": false,
      "inputs": [
        {
          "name": "_id",
          "type": "string"
        },
        {
          "name": "_player1",
          "type": "address"
        },
        {
          "name": "_player2",
          "type": "address"
        },
        {
          "name": "_matchValue",
          "type": "uint256"
        }
      ],
      "name": "addMatchByid",
      "outputs": [],
      "payable": false,
      "stateMutability": "nonpayable",
      "type": "function"
    },
    {
      "constant": true,
      "inputs": [
        {
          "name": "_matchId",
          "type": "bytes32"
        },
        {
          "name": "_player",
          "type": "address"
        }
      ],
      "name": "playerInMatchAndNotPayed",
      "outputs": [
        {
          "name": "",
          "type": "bool"
        }
      ],
      "payable": false,
      "stateMutability": "view",
      "type": "function"
    },
    {
      "constant": false,
      "inputs": [
        {
          "name": "_id",
          "type": "string"
        }
      ],
      "name": "payForBetById",
      "outputs": [
        {
          "name": "",
          "type": "bool"
        }
      ],
      "payable": true,
      "stateMutability": "payable",
      "type": "function"
    },
    {
      "constant": false,
      "inputs": [
        {
          "name": "_matchId",
          "type": "bytes32"
        }
      ],
      "name": "payForBet",
      "outputs": [
        {
          "name": "",
          "type": "bool"
        }
      ],
      "payable": true,
      "stateMutability": "payable",
      "type": "function"
    },
    {
      "constant": false,
      "inputs": [
        {
          "name": "_matchId",
          "type": "string"
        },
        {
          "name": "_winner",
          "type": "address"
        }
      ],
      "name": "updateOracle",
      "outputs": [],
      "payable": false,
      "stateMutability": "nonpayable",
      "type": "function"
    }
  ],
  "bytecode": "0x608060405234801561001057600080fd5b506040516020806115698339810180604052602081101561003057600080fd5b810190808051906020019092919050505080600260006101000a81548173ffffffffffffffffffffffffffffffffffffffff021916908373ffffffffffffffffffffffffffffffffffffffff16021790555033600360006101000a81548173ffffffffffffffffffffffffffffffffffffffff021916908373ffffffffffffffffffffffffffffffffffffffff16021790555050611496806100d36000396000f3fe6080604052600436106100a4576000357c0100000000000000000000000000000000000000000000000000000000900463ffffffff16806324b8b845146100a95780632c70120e146101915780635af4344d146101fd5780636a2c0bc41461030f57806373f9644b1461036657806389acb32a146103ac578063a825232414610431578063a9345240146104a4578063c0eed320146104f7578063fcc6077d146105ca575b600080fd5b3480156100b557600080fd5b5061018f600480360360408110156100cc57600080fd5b81019080803590602001906401000000008111156100e957600080fd5b8201836020820111156100fb57600080fd5b8035906020019184600183028401116401000000008311171561011d57600080fd5b91908080601f016020809104026020016040519081016040528093929190818152602001838380828437600081840152601f19601f820116905080830192505050505050509192919290803573ffffffffffffffffffffffffffffffffffffffff1690602001909291905050506106e4565b005b34801561019d57600080fd5b506101a661098a565b6040518080602001828103825283818151815260200191508051906020019060200280838360005b838110156101e95780820151818401526020810190506101ce565b505050509050019250505060405180910390f35b34801561020957600080fd5b5061030d6004803603608081101561022057600080fd5b810190808035906020019064010000000081111561023d57600080fd5b82018360208201111561024f57600080fd5b8035906020019184600183028401116401000000008311171561027157600080fd5b91908080601f016020809104026020016040519081016040528093929190818152602001838380828437600081840152601f19601f820116905080830192505050505050509192919290803573ffffffffffffffffffffffffffffffffffffffff169060200190929190803573ffffffffffffffffffffffffffffffffffffffff16906020019092919080359060200190929190505050610a45565b005b34801561031b57600080fd5b50610324610ad0565b604051808273ffffffffffffffffffffffffffffffffffffffff1673ffffffffffffffffffffffffffffffffffffffff16815260200191505060405180910390f35b6103926004803603602081101561037c57600080fd5b8101908080359060200190929190505050610af6565b604051808215151515815260200191505060405180910390f35b3480156103b857600080fd5b5061042f600480360360808110156103cf57600080fd5b8101908080359060200190929190803573ffffffffffffffffffffffffffffffffffffffff169060200190929190803573ffffffffffffffffffffffffffffffffffffffff16906020019092919080359060200190929190505050610dd1565b005b34801561043d57600080fd5b5061048a6004803603604081101561045457600080fd5b8101908080359060200190929190803573ffffffffffffffffffffffffffffffffffffffff1690602001909291905050506110d7565b604051808215151515815260200191505060405180910390f35b3480156104b057600080fd5b506104dd600480360360208110156104c757600080fd5b8101908080359060200190929190505050611204565b604051808215151515815260200191505060405180910390f35b6105b06004803603602081101561050d57600080fd5b810190808035906020019064010000000081111561052a57600080fd5b82018360208201111561053c57600080fd5b8035906020019184600183028401116401000000008311171561055e57600080fd5b91908080601f016020809104026020016040519081016040528093929190818152602001838380828437600081840152601f19601f820116905080830192505050505050509192919290505050611241565b604051808215151515815260200191505060405180910390f35b3480156105d657600080fd5b50610603600480360360208110156105ed57600080fd5b81019080803590602001909291905050506112cb565b604051808981526020018873ffffffffffffffffffffffffffffffffffffffff1673ffffffffffffffffffffffffffffffffffffffff1681526020018773ffffffffffffffffffffffffffffffffffffffff1673ffffffffffffffffffffffffffffffffffffffff16815260200186600181111561067d57fe5b60ff1681526020018581526020018473ffffffffffffffffffffffffffffffffffffffff1673ffffffffffffffffffffffffffffffffffffffff16815260200183151515158152602001821515151581526020019850505050505050505060405180910390f35b6000826040516020018082805190602001908083835b60208310151561071f57805182526020820191506020810190506020830392506106fa565b6001836020036101000a03801982511681845116808217855250505050505090500191505060405160208183030381529060405280519060200120905061076581611204565b15156107d9576040517f08c379a00000000000000000000000000000000000000000000000000000000081526004018080602001828103825260128152602001807f4d6174636820646f65736e74206578697374000000000000000000000000000081525060200191505060405180910390fd5b6000806107e58361144b565b8154811015156107f157fe5b906000526020600020906005020190506000600181111561080e57fe5b8160020160149054906101000a900460ff16600181111561082b57fe5b1415156108a0576040517f08c379a000000000000000000000000000000000000000000000000000000000815260040180806020018281038252601f8152602001807f4d6174636820686173206265656e20616c72656164792066696e69736865640081525060200191505060405180910390fd5b828160040160006101000a81548173ffffffffffffffffffffffffffffffffffffffff021916908373ffffffffffffffffffffffffffffffffffffffff16021790555060018160020160146101000a81548160ff0219169083600181111561090457fe5b0217905550813373ffffffffffffffffffffffffffffffffffffffff167fd35ad814037301535774b2e9c24c887d035844e62cf5f620171e4feb903a271585604051808273ffffffffffffffffffffffffffffffffffffffff1673ffffffffffffffffffffffffffffffffffffffff16815260200191505060405180910390a350505050565b60606000805490506040519080825280602002602001820160405280156109c05781602001602082028038833980820191505090505b509050600080805490501115610a3f5760008090506000808054905090505b6000811115610a3c576000600182038154811015156109fa57fe5b9060005260206000209060050201600001548383806001019450815181101515610a2057fe5b90602001906020020181815250508080600190039150506109df565b50505b80905090565b6000846040516020018082805190602001908083835b602083101515610a805780518252602082019150602081019050602083039250610a5b565b6001836020036101000a038019825116818451168082178552505050505050905001915050604051602081830303815290604052805190602001209050610ac981858585610dd1565b5050505050565b600260009054906101000a900473ffffffffffffffffffffffffffffffffffffffff1681565b6000610b0182611204565b1515610b75576040517f08c379a00000000000000000000000000000000000000000000000000000000081526004018080602001828103825260158152602001807f4d6174636820646f6573206e6f7420657869737473000000000000000000000081525060200191505060405180910390fd5b610b7f82336110d7565b1515610b8a57600080fd5b600080610b968461144b565b815481101515610ba257fe5b90600052602060002090600502019050600260009054906101000a900473ffffffffffffffffffffffffffffffffffffffff1673ffffffffffffffffffffffffffffffffffffffff166323b872dd333084600301546040518463ffffffff167c0100000000000000000000000000000000000000000000000000000000028152600401808473ffffffffffffffffffffffffffffffffffffffff1673ffffffffffffffffffffffffffffffffffffffff1681526020018373ffffffffffffffffffffffffffffffffffffffff1673ffffffffffffffffffffffffffffffffffffffff1681526020018281526020019350505050602060405180830381600087803b158015610caf57600080fd5b505af1158015610cc3573d6000803e3d6000fd5b505050506040513d6020811015610cd957600080fd5b8101908080519060200190929190505050508060010160009054906101000a900473ffffffffffffffffffffffffffffffffffffffff1673ffffffffffffffffffffffffffffffffffffffff163373ffffffffffffffffffffffffffffffffffffffff161415610d655760018160040160146101000a81548160ff021916908315150217905550610d83565b60018160040160156101000a81548160ff0219169083151502179055505b823373ffffffffffffffffffffffffffffffffffffffff167fbc71a670b4c5236a58fab3fda09310ece74f0b3185e2868d4247d4c00e65d14e60405160405180910390a36001915050919050565b610dda84611204565b151515610de657600080fd5b600060016000610100604051908101604052808881526020018773ffffffffffffffffffffffffffffffffffffffff1681526020018673ffffffffffffffffffffffffffffffffffffffff16815260200160006001811115610e4457fe5b8152602001858152602001600073ffffffffffffffffffffffffffffffffffffffff16815260200160001515815260200160001515815250908060018154018082558091505090600182039060005260206000209060050201600090919290919091506000820151816000015560208201518160010160006101000a81548173ffffffffffffffffffffffffffffffffffffffff021916908373ffffffffffffffffffffffffffffffffffffffff16021790555060408201518160020160006101000a81548173ffffffffffffffffffffffffffffffffffffffff021916908373ffffffffffffffffffffffffffffffffffffffff16021790555060608201518160020160146101000a81548160ff02191690836001811115610f6357fe5b02179055506080820151816003015560a08201518160040160006101000a81548173ffffffffffffffffffffffffffffffffffffffff021916908373ffffffffffffffffffffffffffffffffffffffff16021790555060c08201518160040160146101000a81548160ff02191690831515021790555060e08201518160040160156101000a81548160ff0219169083151502179055505050039050600181016001600087815260200190815260200160002081905550843373ffffffffffffffffffffffffffffffffffffffff167f10cc98c26c76bf6470a328df31ee0ae7797a6a43eeed3cfe8f7518b255b0f130868686604051808473ffffffffffffffffffffffffffffffffffffffff1673ffffffffffffffffffffffffffffffffffffffff1681526020018373ffffffffffffffffffffffffffffffffffffffff1673ffffffffffffffffffffffffffffffffffffffff168152602001828152602001935050505060405180910390a35050505050565b60008060008054905014156110ef57600090506111fe565b6000806110fb8561144b565b81548110151561110757fe5b906000526020600020906005020190508273ffffffffffffffffffffffffffffffffffffffff168160010160009054906101000a900473ffffffffffffffffffffffffffffffffffffffff1673ffffffffffffffffffffffffffffffffffffffff1614801561118557508060040160149054906101000a900460ff16155b806111fa57508273ffffffffffffffffffffffffffffffffffffffff168160020160009054906101000a900473ffffffffffffffffffffffffffffffffffffffff1673ffffffffffffffffffffffffffffffffffffffff161480156111f957508060040160159054906101000a900460ff16155b5b9150505b92915050565b600080600080549050141561121c576000905061123c565b600060016000848152602001908152602001600020549050600081119150505b919050565b600080826040516020018082805190602001908083835b60208310151561127d5780518252602082019150602081019050602083039250611258565b6001836020036101000a0380198251168184511680821785525050505050509050019150506040516020818303038152906040528051906020012090506112c381610af6565b915050919050565b6000806000806000806000806112e089611204565b156113d2576000806112f18b61144b565b8154811015156112fd57fe5b9060005260206000209060050201905080600001548160010160009054906101000a900473ffffffffffffffffffffffffffffffffffffffff168260020160009054906101000a900473ffffffffffffffffffffffffffffffffffffffff168360020160149054906101000a900460ff1684600301548560040160009054906101000a900473ffffffffffffffffffffffffffffffffffffffff168660040160149054906101000a900460ff168760040160159054906101000a900460ff169850985098509850985098509850985050611440565b6040517f08c379a00000000000000000000000000000000000000000000000000000000081526004018080602001828103825260158152602001807f4d61746368206e6f7420666f756e64206279206964000000000000000000000081525060200191505060405180910390fd5b919395975091939597565b600060018060008481526020019081526020016000205403905091905056fea165627a7a72305820519593ce80a61902f02c93d654b0dbee799b9a694125db466157c5f0c236c0060029",
  "source": "pragma solidity >=0.4.22 <0.8.0;\r\n\r\nimport './Ownable.sol';\r\nimport './UGameToken.sol';\r\n\r\ncontract Oracle {\r\n    Match[] matches;\r\n    mapping(bytes32 => uint) matchIdToIndex; \r\n\r\n    event MatchAdded (\r\n        address indexed _by,\r\n        address _player1,\r\n        address _player2,\r\n        bytes32 indexed _matchId,\r\n        uint256 _matchValue\r\n    );\r\n\r\n    event MatchFinished(\r\n        address indexed _by,\r\n        bytes32 indexed _matchId,\r\n        address _winner\r\n    );\r\n\r\n    event BetSet(\r\n        address indexed _by,\r\n        bytes32 indexed _matchId\r\n    );\r\n\r\n    enum MatchOutcome {\r\n        Planned,\r\n        Finished\r\n    }\r\n\r\n    struct Match {\r\n        bytes32 id;\r\n        address player1;\r\n        address player2;\r\n        MatchOutcome outcome;\r\n        uint256 matchValue;\r\n        address winner;\r\n        bool player1Payed;\r\n        bool player2Payed;\r\n    }\r\n\r\n    UGameToken public tokenCotract;\r\n    address payable internal admin;\r\n\r\n    address private oracle;\r\n    bytes32 private jobId;\r\n    uint256 private fee;\r\n\r\n    constructor(UGameToken _tokenContract) public {\r\n        tokenCotract = _tokenContract;\r\n        admin = msg.sender;\r\n        // setPublicChainlinkToken();\r\n\r\n        // // Change in future!\r\n        // oracle = 0x2f90A6D021db21e1B2A077c5a37B3C7E75D15b7e;\r\n        // jobId = \"29fa9aa13bf1468788b7cc4a500a45b8\";\r\n        // fee = 0.1 * 10 ** 18; \r\n    }\r\n\r\n    function getMatch(bytes32 _matchId) public view returns (bytes32 id,\r\n        address player1,\r\n        address player2,\r\n        MatchOutcome outcome,\r\n        uint256 matchValue,\r\n        address winner,\r\n        bool player1Payed,\r\n        bool player2Payed)\r\n    {\r\n        if (matchExists(_matchId)) {\r\n            Match storage matchFound = matches[_getMatchIndex(_matchId)];\r\n            return (matchFound.id, \r\n                    matchFound.player1, \r\n                    matchFound.player2, \r\n                    matchFound.outcome, \r\n                    matchFound.matchValue, \r\n                    matchFound.winner,\r\n                    matchFound.player1Payed,\r\n                    matchFound.player2Payed); \r\n        }\r\n        else {\r\n            revert('Match not found by id'); \r\n        }\r\n    }\r\n    \r\n    function getMatches() public view returns (bytes32[] memory ids)\r\n    {\r\n        ids = new bytes32[](matches.length); \r\n\r\n        if (matches.length > 0) {\r\n            uint index = 0;\r\n            for (uint n = matches.length; n > 0; n--) {\r\n                ids[index++] = matches[n-1].id;\r\n            }\r\n        }\r\n        \r\n        return ids; \r\n    }\r\n\r\n    function _updateMatches() private {\r\n        // Update\r\n    }\r\n    \r\n    function _getMatchIndex(bytes32 _matchId) private view returns (uint) {\r\n        return matchIdToIndex[_matchId]-1; \r\n    }\r\n\r\n    function matchExists(bytes32 _matchId) public view returns (bool) {\r\n        if (matches.length == 0)\r\n            return false;\r\n        uint index = matchIdToIndex[_matchId]; \r\n        return (index > 0); \r\n    }\r\n\r\n    function addMatch(bytes32 _id, address _player1, address _player2, uint256 _matchValue) public {\r\n        require(!matchExists(_id));\r\n        //require(msg.sender == _player1 || msg.sender == _player2);\r\n\r\n        uint newIndex = matches.push(Match(_id, _player1, _player2, MatchOutcome.Planned, _matchValue, address(0x0), false, false)) - 1; \r\n        matchIdToIndex[_id] = newIndex + 1;\r\n\r\n        emit MatchAdded(msg.sender, _player1, _player2, _id, _matchValue);\r\n\r\n        // require(payForBet(_id), 'Could not pay the bet');\r\n    }\r\n\r\n    function addMatchByid(string memory _id, address _player1, address _player2, uint256 _matchValue) public {\r\n        //require(msg.sender == _player1 || msg.sender == _player2);\r\n        bytes32 genId = keccak256(abi.encodePacked(_id));\r\n        addMatch(genId, _player1, _player2, _matchValue);\r\n    }\r\n\r\n    function playerInMatchAndNotPayed(bytes32 _matchId, address _player) public view returns (bool) {\r\n        if (matches.length == 0)\r\n            return false;\r\n        Match storage matchFound = matches[_getMatchIndex(_matchId)];\r\n\r\n        return (matchFound.player1 == _player && !matchFound.player1Payed) || (matchFound.player2 == _player && !matchFound.player2Payed);\r\n    }\r\n\r\n    function payForBetById(string memory _id) public payable returns(bool) {\r\n        bytes32 genId = keccak256(abi.encodePacked(_id));\r\n        return payForBet(genId);\r\n    }\r\n\r\n    function payForBet(bytes32 _matchId)  public payable returns(bool) {\r\n        require(matchExists(_matchId), 'Match does not exists');\r\n        require(playerInMatchAndNotPayed(_matchId, msg.sender));\r\n\r\n        Match storage matchFound = matches[_getMatchIndex(_matchId)];\r\n\r\n        tokenCotract.transferFrom(msg.sender, address(this), matchFound.matchValue);\r\n        if (msg.sender == matchFound.player1) {\r\n            matchFound.player1Payed = true;\r\n        } else {\r\n            matchFound.player2Payed = true;\r\n        }\r\n        emit BetSet(msg.sender,_matchId);\r\n        return true;\r\n    }\r\n    // For test only\r\n    function updateOracle(string memory _matchId, address _winner) public {\r\n        bytes32 genId = keccak256(abi.encodePacked(_matchId));\r\n        require(matchExists(genId), 'Match doesnt exist');\r\n        Match storage matchFound = matches[_getMatchIndex(genId)];\r\n        require(matchFound.outcome == MatchOutcome.Planned, 'Match has been already finished'); \r\n        // require(_winner == matchFound.player1 || _winner == matchFound.player2, 'Winner is not a participant');\r\n        // Match storage theMatch = matches[index];\r\n        \r\n        matchFound.winner = _winner;\r\n        matchFound.outcome = MatchOutcome.Finished;\r\n        \r\n        emit MatchFinished(msg.sender, genId, _winner);\r\n\r\n        // if (matchFound.player1Payed && matchFound.player2Payed) {\r\n        //     tokenCotract.transfer(_winner, matchFound.matchValue);\r\n        // } else {\r\n        //     if (matchFound.player1Payed) {\r\n        //         tokenCotract.transfer(matchFound.player1, matchFound.matchValue);\r\n        //     } else if (matchFound.player2Payed) {\r\n        //         tokenCotract.transfer(matchFound.player2, matchFound.matchValue);\r\n        //     }\r\n        // }      \r\n    }\r\n}",
  "sourcePath": "D:\\git\\f\\UGameTokenBlockchain\\contracts\\Oracle.sol",
  "compiler": {
    "name": "solc",
    "version": "0.5.0+commit.1d4f565a.Emscripten.clang"
  },
  "schemaVersion": "3.3.2",
  "updatedAt": "2020-12-07T06:47:12.657Z",
  "networkType": "ethereum",
  "devdoc": {
    "methods": {}
  },
  "userdoc": {
    "methods": {}
  }
}