{
  "contractName": "Oracle",
  "abi": [
    {
      "inputs": [
        {
          "internalType": "contract UGameToken",
          "name": "_tokenContract",
          "type": "address"
        }
      ],
      "payable": false,
      "stateMutability": "nonpayable",
      "type": "constructor"
    },
    {
      "anonymous": false,
      "inputs": [
        {
          "indexed": true,
          "internalType": "bytes32",
          "name": "id",
          "type": "bytes32"
        }
      ],
      "name": "ChainlinkCancelled",
      "type": "event"
    },
    {
      "anonymous": false,
      "inputs": [
        {
          "indexed": true,
          "internalType": "bytes32",
          "name": "id",
          "type": "bytes32"
        }
      ],
      "name": "ChainlinkFulfilled",
      "type": "event"
    },
    {
      "anonymous": false,
      "inputs": [
        {
          "indexed": true,
          "internalType": "bytes32",
          "name": "id",
          "type": "bytes32"
        }
      ],
      "name": "ChainlinkRequested",
      "type": "event"
    },
    {
      "anonymous": false,
      "inputs": [
        {
          "indexed": true,
          "internalType": "address",
          "name": "previousOwner",
          "type": "address"
        },
        {
          "indexed": true,
          "internalType": "address",
          "name": "newOwner",
          "type": "address"
        }
      ],
      "name": "OwnershipTransferred",
      "type": "event"
    },
    {
      "constant": true,
      "inputs": [],
      "name": "owner",
      "outputs": [
        {
          "internalType": "address",
          "name": "",
          "type": "address"
        }
      ],
      "payable": false,
      "stateMutability": "view",
      "type": "function"
    },
    {
      "constant": true,
      "inputs": [],
      "name": "tokenCotract",
      "outputs": [
        {
          "internalType": "contract UGameToken",
          "name": "",
          "type": "address"
        }
      ],
      "payable": false,
      "stateMutability": "view",
      "type": "function"
    },
    {
      "constant": false,
      "inputs": [
        {
          "internalType": "address",
          "name": "newOwner",
          "type": "address"
        }
      ],
      "name": "transferOwnership",
      "outputs": [],
      "payable": false,
      "stateMutability": "nonpayable",
      "type": "function"
    },
    {
      "constant": true,
      "inputs": [
        {
          "internalType": "bytes32",
          "name": "_matchId",
          "type": "bytes32"
        }
      ],
      "name": "getMatch",
      "outputs": [
        {
          "internalType": "bytes32",
          "name": "id",
          "type": "bytes32"
        },
        {
          "internalType": "address",
          "name": "player1",
          "type": "address"
        },
        {
          "internalType": "address",
          "name": "player2",
          "type": "address"
        },
        {
          "internalType": "enum Oracle.MatchOutcome",
          "name": "outcome",
          "type": "uint8"
        },
        {
          "internalType": "uint256",
          "name": "matchValue",
          "type": "uint256"
        },
        {
          "internalType": "address",
          "name": "winner",
          "type": "address"
        },
        {
          "internalType": "bool",
          "name": "player1Payed",
          "type": "bool"
        },
        {
          "internalType": "bool",
          "name": "player2Payed",
          "type": "bool"
        }
      ],
      "payable": false,
      "stateMutability": "view",
      "type": "function"
    },
    {
      "constant": true,
      "inputs": [],
      "name": "getMatches",
      "outputs": [
        {
          "internalType": "bytes32[]",
          "name": "ids",
          "type": "bytes32[]"
        }
      ],
      "payable": false,
      "stateMutability": "view",
      "type": "function"
    },
    {
      "constant": true,
      "inputs": [
        {
          "internalType": "bytes32",
          "name": "_matchId",
          "type": "bytes32"
        }
      ],
      "name": "matchExists",
      "outputs": [
        {
          "internalType": "bool",
          "name": "",
          "type": "bool"
        }
      ],
      "payable": false,
      "stateMutability": "view",
      "type": "function"
    },
    {
      "constant": false,
      "inputs": [
        {
          "internalType": "bytes32",
          "name": "_id",
          "type": "bytes32"
        },
        {
          "internalType": "address",
          "name": "_player1",
          "type": "address"
        },
        {
          "internalType": "address",
          "name": "_player2",
          "type": "address"
        },
        {
          "internalType": "uint256",
          "name": "_matchValue",
          "type": "uint256"
        }
      ],
      "name": "addMatch",
      "outputs": [],
      "payable": false,
      "stateMutability": "nonpayable",
      "type": "function"
    },
    {
      "constant": false,
      "inputs": [
        {
          "internalType": "string",
          "name": "_id",
          "type": "string"
        },
        {
          "internalType": "address",
          "name": "_player1",
          "type": "address"
        },
        {
          "internalType": "address",
          "name": "_player2",
          "type": "address"
        },
        {
          "internalType": "uint256",
          "name": "_matchValue",
          "type": "uint256"
        }
      ],
      "name": "addMatchByid",
      "outputs": [],
      "payable": false,
      "stateMutability": "nonpayable",
      "type": "function"
    },
    {
      "constant": true,
      "inputs": [
        {
          "internalType": "bytes32",
          "name": "_matchId",
          "type": "bytes32"
        },
        {
          "internalType": "address",
          "name": "_player",
          "type": "address"
        }
      ],
      "name": "playerInMatchAndNotPayed",
      "outputs": [
        {
          "internalType": "bool",
          "name": "",
          "type": "bool"
        }
      ],
      "payable": false,
      "stateMutability": "view",
      "type": "function"
    },
    {
      "constant": false,
      "inputs": [
        {
          "internalType": "bytes32",
          "name": "_matchId",
          "type": "bytes32"
        }
      ],
      "name": "payForBet",
      "outputs": [],
      "payable": true,
      "stateMutability": "payable",
      "type": "function"
    }
  ],
  "bytecode": "0x6080604052600160055534801561001557600080fd5b506040516113f83803806113f88339818101604052602081101561003857600080fd5b8101908080519060200190929190505050336000806101000a81548173ffffffffffffffffffffffffffffffffffffffff021916908373ffffffffffffffffffffffffffffffffffffffff16021790555080600960006101000a81548173ffffffffffffffffffffffffffffffffffffffff021916908373ffffffffffffffffffffffffffffffffffffffff1602179055505061131e806100da6000396000f3fe6080604052600436106100915760003560e01c80638da5cb5b116100595780638da5cb5b1461031e578063a825232414610375578063a9345240146103e8578063f2fde38b1461043b578063fcc6077d1461048c57610091565b80632c70120e146100965780635af4344d146101025780636a2c0bc41461021457806373f9644b1461026b57806389acb32a14610299575b600080fd5b3480156100a257600080fd5b506100ab6105a6565b6040518080602001828103825283818151815260200191508051906020019060200280838360005b838110156100ee5780820151818401526020810190506100d3565b505050509050019250505060405180910390f35b34801561010e57600080fd5b506102126004803603608081101561012557600080fd5b810190808035906020019064010000000081111561014257600080fd5b82018360208201111561015457600080fd5b8035906020019184600183028401116401000000008311171561017657600080fd5b91908080601f016020809104026020016040519081016040528093929190818152602001838380828437600081840152601f19601f820116905080830192505050505050509192919290803573ffffffffffffffffffffffffffffffffffffffff169060200190929190803573ffffffffffffffffffffffffffffffffffffffff1690602001909291908035906020019092919050505061065d565b005b34801561022057600080fd5b50610229610920565b604051808273ffffffffffffffffffffffffffffffffffffffff1673ffffffffffffffffffffffffffffffffffffffff16815260200191505060405180910390f35b6102976004803603602081101561028157600080fd5b8101908080359060200190929190505050610946565b005b3480156102a557600080fd5b5061031c600480360360808110156102bc57600080fd5b8101908080359060200190929190803573ffffffffffffffffffffffffffffffffffffffff169060200190929190803573ffffffffffffffffffffffffffffffffffffffff16906020019092919080359060200190929190505050610bc6565b005b34801561032a57600080fd5b50610333610e12565b604051808273ffffffffffffffffffffffffffffffffffffffff1673ffffffffffffffffffffffffffffffffffffffff16815260200191505060405180910390f35b34801561038157600080fd5b506103ce6004803603604081101561039857600080fd5b8101908080359060200190929190803573ffffffffffffffffffffffffffffffffffffffff169060200190929190505050610e37565b604051808215151515815260200191505060405180910390f35b3480156103f457600080fd5b506104216004803603602081101561040b57600080fd5b8101908080359060200190929190505050610fbc565b604051808215151515815260200191505060405180910390f35b34801561044757600080fd5b5061048a6004803603602081101561045e57600080fd5b81019080803573ffffffffffffffffffffffffffffffffffffffff169060200190929190505050610ff9565b005b34801561049857600080fd5b506104c5600480360360208110156104af57600080fd5b810190808035906020019092919050505061114a565b604051808981526020018873ffffffffffffffffffffffffffffffffffffffff1673ffffffffffffffffffffffffffffffffffffffff1681526020018773ffffffffffffffffffffffffffffffffffffffff1673ffffffffffffffffffffffffffffffffffffffff16815260200186600181111561053f57fe5b60ff1681526020018581526020018473ffffffffffffffffffffffffffffffffffffffff1673ffffffffffffffffffffffffffffffffffffffff16815260200183151515158152602001821515151581526020019850505050505050505060405180910390f35b60606007805490506040519080825280602002602001820160405280156105dc5781602001602082028038833980820191505090505b50905060006007805490501115610657576000809050600060078054905090505b6000811115610654576007600182038154811061061657fe5b90600052602060002090600502016000015483838060010194508151811061063a57fe5b6020026020010181815250508080600190039150506105fd565b50505b80905090565b6000846040516020018082805190602001908083835b602083106106965780518252602082019150602081019050602083039250610673565b6001836020036101000a0380198251168184511680821785525050505050509050019150506040516020818303038152906040528051906020012090506106dc81610fbc565b156106e657600080fd5b6000600160076040518061010001604052808581526020018873ffffffffffffffffffffffffffffffffffffffff1681526020018773ffffffffffffffffffffffffffffffffffffffff1681526020016000600181111561074357fe5b8152602001868152602001600073ffffffffffffffffffffffffffffffffffffffff16815260200160001515815260200160001515815250908060018154018082558091505090600182039060005260206000209060050201600090919290919091506000820151816000015560208201518160010160006101000a81548173ffffffffffffffffffffffffffffffffffffffff021916908373ffffffffffffffffffffffffffffffffffffffff16021790555060408201518160020160006101000a81548173ffffffffffffffffffffffffffffffffffffffff021916908373ffffffffffffffffffffffffffffffffffffffff16021790555060608201518160020160146101000a81548160ff0219169083600181111561086257fe5b02179055506080820151816003015560a08201518160040160006101000a81548173ffffffffffffffffffffffffffffffffffffffff021916908373ffffffffffffffffffffffffffffffffffffffff16021790555060c08201518160040160146101000a81548160ff02191690831515021790555060e08201518160040160156101000a81548160ff0219169083151502179055505050039050600181016008600084815260200190815260200160002081905550505050505050565b600960009054906101000a900473ffffffffffffffffffffffffffffffffffffffff1681565b61094f81610fbc565b61095857600080fd5b6109628133610e37565b61096b57600080fd5b600060086000838152602001908152602001600020549050600960009054906101000a900473ffffffffffffffffffffffffffffffffffffffff1673ffffffffffffffffffffffffffffffffffffffff166323b872dd33600a60009054906101000a900473ffffffffffffffffffffffffffffffffffffffff16600785815481106109f257fe5b9060005260206000209060050201600301546040518463ffffffff1660e01b8152600401808473ffffffffffffffffffffffffffffffffffffffff1673ffffffffffffffffffffffffffffffffffffffff1681526020018373ffffffffffffffffffffffffffffffffffffffff1673ffffffffffffffffffffffffffffffffffffffff1681526020018281526020019350505050602060405180830381600087803b158015610aa057600080fd5b505af1158015610ab4573d6000803e3d6000fd5b505050506040513d6020811015610aca57600080fd5b81019080805190602001909291905050505060078181548110610ae957fe5b906000526020600020906005020160010160009054906101000a900473ffffffffffffffffffffffffffffffffffffffff1673ffffffffffffffffffffffffffffffffffffffff163373ffffffffffffffffffffffffffffffffffffffff161415610b8a57600160078281548110610b5d57fe5b906000526020600020906005020160040160146101000a81548160ff021916908315150217905550610bc2565b600160078281548110610b9957fe5b906000526020600020906005020160040160156101000a81548160ff0219169083151502179055505b5050565b610bcf84610fbc565b15610bd957600080fd5b6000600160076040518061010001604052808881526020018773ffffffffffffffffffffffffffffffffffffffff1681526020018673ffffffffffffffffffffffffffffffffffffffff16815260200160006001811115610c3657fe5b8152602001858152602001600073ffffffffffffffffffffffffffffffffffffffff16815260200160001515815260200160001515815250908060018154018082558091505090600182039060005260206000209060050201600090919290919091506000820151816000015560208201518160010160006101000a81548173ffffffffffffffffffffffffffffffffffffffff021916908373ffffffffffffffffffffffffffffffffffffffff16021790555060408201518160020160006101000a81548173ffffffffffffffffffffffffffffffffffffffff021916908373ffffffffffffffffffffffffffffffffffffffff16021790555060608201518160020160146101000a81548160ff02191690836001811115610d5557fe5b02179055506080820151816003015560a08201518160040160006101000a81548173ffffffffffffffffffffffffffffffffffffffff021916908373ffffffffffffffffffffffffffffffffffffffff16021790555060c08201518160040160146101000a81548160ff02191690831515021790555060e08201518160040160156101000a81548160ff02191690831515021790555050500390506001810160086000878152602001908152602001600020819055505050505050565b6000809054906101000a900473ffffffffffffffffffffffffffffffffffffffff1681565b6000806007805490501415610e4f5760009050610fb6565b6000600860008581526020019081526020016000205490508273ffffffffffffffffffffffffffffffffffffffff1660078281548110610e8b57fe5b906000526020600020906005020160010160009054906101000a900473ffffffffffffffffffffffffffffffffffffffff1673ffffffffffffffffffffffffffffffffffffffff16148015610f09575060078181548110610ee857fe5b906000526020600020906005020160040160149054906101000a900460ff16155b80610fb257508273ffffffffffffffffffffffffffffffffffffffff1660078281548110610f3357fe5b906000526020600020906005020160020160009054906101000a900473ffffffffffffffffffffffffffffffffffffffff1673ffffffffffffffffffffffffffffffffffffffff16148015610fb1575060078181548110610f9057fe5b906000526020600020906005020160040160159054906101000a900460ff16155b5b9150505b92915050565b6000806007805490501415610fd45760009050610ff4565b600060086000848152602001908152602001600020549050600081119150505b919050565b6000809054906101000a900473ffffffffffffffffffffffffffffffffffffffff1673ffffffffffffffffffffffffffffffffffffffff163373ffffffffffffffffffffffffffffffffffffffff161461105257600080fd5b600073ffffffffffffffffffffffffffffffffffffffff168173ffffffffffffffffffffffffffffffffffffffff16141561108c57600080fd5b8073ffffffffffffffffffffffffffffffffffffffff166000809054906101000a900473ffffffffffffffffffffffffffffffffffffffff1673ffffffffffffffffffffffffffffffffffffffff167f8be0079c531659141344cd1fd0a4f28419497f9722a3daafe3b4186f6b6457e060405160405180910390a3806000806101000a81548173ffffffffffffffffffffffffffffffffffffffff021916908373ffffffffffffffffffffffffffffffffffffffff16021790555050565b60008060008060008060008061115f89610fbc565b1561125057600060076111718b6112c9565b8154811061117b57fe5b9060005260206000209060050201905080600001548160010160009054906101000a900473ffffffffffffffffffffffffffffffffffffffff168260020160009054906101000a900473ffffffffffffffffffffffffffffffffffffffff168360020160149054906101000a900460ff1684600301548560040160009054906101000a900473ffffffffffffffffffffffffffffffffffffffff168660040160149054906101000a900460ff168760040160159054906101000a900460ff1698509850985098509850985098509850506112be565b6040517f08c379a00000000000000000000000000000000000000000000000000000000081526004018080602001828103825260158152602001807f4d61746368206e6f7420666f756e64206279206964000000000000000000000081525060200191505060405180910390fd5b919395975091939597565b60006001600860008481526020019081526020016000205403905091905056fea265627a7a723158208c0867e7a86fc66b711e642e0659a9e3d6f2b7fbde2e735643a6a675fe0099f864736f6c63430005100032",
  "source": "pragma solidity >=0.4.22 <0.8.0;\r\n\r\nimport './Ownable.sol';\r\nimport \"@chainlink/contracts/src/v0.5/ChainlinkClient.sol\";\r\nimport './UGameToken.sol';\r\n\r\ncontract Oracle is Ownable, ChainlinkClient {\r\n    Match[] matches;\r\n    mapping(bytes32 => uint) matchIdToIndex; \r\n\r\n\r\n    enum MatchOutcome {\r\n        Planned,\r\n        Finished\r\n    }\r\n\r\n    struct Match {\r\n        bytes32 id;\r\n        address player1;\r\n        address player2;\r\n        MatchOutcome outcome;\r\n        uint256 matchValue;\r\n        address winner;\r\n        bool player1Payed;\r\n        bool player2Payed;\r\n    }\r\n\r\n    UGameToken public tokenCotract;\r\n    address payable internal admin;\r\n\r\n    constructor(UGameToken _tokenContract) public {\r\n        tokenCotract = _tokenContract;\r\n    }\r\n\r\n    function getMatch(bytes32 _matchId) public view returns (bytes32 id,\r\n        address player1,\r\n        address player2,\r\n        MatchOutcome outcome,\r\n        uint256 matchValue,\r\n        address winner,\r\n        bool player1Payed,\r\n        bool player2Payed)\r\n    {\r\n        if (matchExists(_matchId)) {\r\n            Match storage matchFound = matches[_getMatchIndex(_matchId)];\r\n            return (matchFound.id, \r\n                    matchFound.player1, \r\n                    matchFound.player2, \r\n                    matchFound.outcome, \r\n                    matchFound.matchValue, \r\n                    matchFound.winner,\r\n                    matchFound.player1Payed,\r\n                    matchFound.player2Payed); \r\n        }\r\n        else {\r\n            revert('Match not found by id'); \r\n        }\r\n    }\r\n    \r\n    function getMatches() public view returns (bytes32[] memory ids)\r\n    {\r\n        ids = new bytes32[](matches.length); \r\n\r\n        if (matches.length > 0) {\r\n            uint index = 0;\r\n            for (uint n = matches.length; n > 0; n--) {\r\n                ids[index++] = matches[n-1].id;\r\n            }\r\n        }\r\n        \r\n        return ids; \r\n    }\r\n\r\n    function _updateMatches() private {\r\n        // Update\r\n    }\r\n    \r\n    function _getMatchIndex(bytes32 _matchId) private view returns (uint) {\r\n        return matchIdToIndex[_matchId]-1; \r\n    }\r\n\r\n    function matchExists(bytes32 _matchId) public view returns (bool) {\r\n        if (matches.length == 0)\r\n            return false;\r\n        uint index = matchIdToIndex[_matchId]; \r\n        return (index > 0); \r\n    }\r\n\r\n    function addMatch(bytes32 _id, address _player1, address _player2, uint256 _matchValue) public {\r\n        \r\n        //require(msg.sender == _player1 || msg.sender == _player2);\r\n        require(!matchExists(_id));\r\n\r\n        uint newIndex = matches.push(Match(_id, _player1, _player2, MatchOutcome.Planned, _matchValue, address(0x0), false, false)) - 1; \r\n        matchIdToIndex[_id] = newIndex + 1;\r\n    }\r\n\r\n    function addMatchByid(string memory _id, address _player1, address _player2, uint256 _matchValue) public {\r\n        \r\n        //require(msg.sender == _player1 || msg.sender == _player2);\r\n        bytes32 genId = keccak256(abi.encodePacked(_id));\r\n        require(!matchExists(genId));\r\n\r\n        uint newIndex = matches.push(Match(genId, _player1, _player2, MatchOutcome.Planned, _matchValue, address(0x0), false, false)) - 1; \r\n        matchIdToIndex[genId] = newIndex + 1;\r\n    }\r\n\r\n    function playerInMatchAndNotPayed(bytes32 _matchId, address _player) public view returns (bool) {\r\n        if (matches.length == 0)\r\n            return false;\r\n        uint index = matchIdToIndex[_matchId]; \r\n\r\n        return (matches[index].player1 == _player && !matches[index].player1Payed) || (matches[index].player2 == _player && !matches[index].player2Payed);\r\n    }\r\n\r\n    function payForBet(bytes32 _matchId) public payable {\r\n        require(matchExists(_matchId));\r\n        require(playerInMatchAndNotPayed(_matchId, msg.sender));\r\n\r\n        uint index = matchIdToIndex[_matchId]; \r\n\r\n        tokenCotract.transferFrom(msg.sender, admin, matches[index].matchValue);\r\n        if (msg.sender == matches[index].player1) {\r\n            matches[index].player1Payed = true;\r\n        } else {\r\n            matches[index].player2Payed = true;\r\n        }\r\n    }\r\n}",
  "sourcePath": "D:\\git\\UGameTokenBlockchain\\contracts\\Oracle.sol",
  "compiler": {
    "name": "solc",
    "version": "0.5.16+commit.9c3226ce.Emscripten.clang"
  },
  "schemaVersion": "3.3.2",
  "updatedAt": "2020-11-22T13:04:50.289Z",
  "devdoc": {
    "methods": {}
  },
  "userdoc": {
    "methods": {}
  }
}