{
  "contractName": "Oracle",
  "abi": [
    {
      "constant": true,
      "inputs": [],
      "name": "tokenCotract",
      "outputs": [
        {
          "name": "",
          "type": "address"
        }
      ],
      "payable": false,
      "stateMutability": "view",
      "type": "function"
    },
    {
      "constant": true,
      "inputs": [],
      "name": "owner",
      "outputs": [
        {
          "name": "",
          "type": "address"
        }
      ],
      "payable": false,
      "stateMutability": "view",
      "type": "function"
    },
    {
      "constant": false,
      "inputs": [
        {
          "name": "newOwner",
          "type": "address"
        }
      ],
      "name": "transferOwnership",
      "outputs": [],
      "payable": false,
      "stateMutability": "nonpayable",
      "type": "function"
    },
    {
      "inputs": [
        {
          "name": "_tokenContract",
          "type": "address"
        }
      ],
      "payable": false,
      "stateMutability": "nonpayable",
      "type": "constructor"
    },
    {
      "anonymous": false,
      "inputs": [
        {
          "indexed": true,
          "name": "id",
          "type": "bytes32"
        }
      ],
      "name": "ChainlinkRequested",
      "type": "event"
    },
    {
      "anonymous": false,
      "inputs": [
        {
          "indexed": true,
          "name": "id",
          "type": "bytes32"
        }
      ],
      "name": "ChainlinkFulfilled",
      "type": "event"
    },
    {
      "anonymous": false,
      "inputs": [
        {
          "indexed": true,
          "name": "id",
          "type": "bytes32"
        }
      ],
      "name": "ChainlinkCancelled",
      "type": "event"
    },
    {
      "anonymous": false,
      "inputs": [
        {
          "indexed": true,
          "name": "previousOwner",
          "type": "address"
        },
        {
          "indexed": true,
          "name": "newOwner",
          "type": "address"
        }
      ],
      "name": "OwnershipTransferred",
      "type": "event"
    },
    {
      "constant": true,
      "inputs": [
        {
          "name": "_matchId",
          "type": "bytes32"
        }
      ],
      "name": "matchExists",
      "outputs": [
        {
          "name": "",
          "type": "bool"
        }
      ],
      "payable": false,
      "stateMutability": "view",
      "type": "function"
    },
    {
      "constant": false,
      "inputs": [
        {
          "name": "_id",
          "type": "bytes32"
        },
        {
          "name": "_player1",
          "type": "address"
        },
        {
          "name": "_player2",
          "type": "address"
        },
        {
          "name": "_matchValue",
          "type": "uint256"
        }
      ],
      "name": "addMatch",
      "outputs": [],
      "payable": false,
      "stateMutability": "nonpayable",
      "type": "function"
    }
  ],
  "bytecode": "0x6080604052600160055534801561001557600080fd5b5060405160208061099d8339810180604052602081101561003557600080fd5b8101908080519060200190929190505050336000806101000a81548173ffffffffffffffffffffffffffffffffffffffff021916908373ffffffffffffffffffffffffffffffffffffffff16021790555080600960006101000a81548173ffffffffffffffffffffffffffffffffffffffff021916908373ffffffffffffffffffffffffffffffffffffffff160217905550506108c6806100d76000396000f3fe60806040526004361061006d576000357c0100000000000000000000000000000000000000000000000000000000900463ffffffff1680636a2c0bc41461007257806389acb32a146100c95780638da5cb5b1461014e578063a9345240146101a5578063f2fde38b146101f8575b600080fd5b34801561007e57600080fd5b50610087610249565b604051808273ffffffffffffffffffffffffffffffffffffffff1673ffffffffffffffffffffffffffffffffffffffff16815260200191505060405180910390f35b3480156100d557600080fd5b5061014c600480360360808110156100ec57600080fd5b8101908080359060200190929190803573ffffffffffffffffffffffffffffffffffffffff169060200190929190803573ffffffffffffffffffffffffffffffffffffffff1690602001909291908035906020019092919050505061026f565b005b34801561015a57600080fd5b506101636106e3565b604051808273ffffffffffffffffffffffffffffffffffffffff1673ffffffffffffffffffffffffffffffffffffffff16815260200191505060405180910390f35b3480156101b157600080fd5b506101de600480360360208110156101c857600080fd5b8101908080359060200190929190505050610708565b604051808215151515815260200191505060405180910390f35b34801561020457600080fd5b506102476004803603602081101561021b57600080fd5b81019080803573ffffffffffffffffffffffffffffffffffffffff169060200190929190505050610745565b005b600960009054906101000a900473ffffffffffffffffffffffffffffffffffffffff1681565b80600960009054906101000a900473ffffffffffffffffffffffffffffffffffffffff1673ffffffffffffffffffffffffffffffffffffffff166370a08231856040518263ffffffff167c0100000000000000000000000000000000000000000000000000000000028152600401808273ffffffffffffffffffffffffffffffffffffffff1673ffffffffffffffffffffffffffffffffffffffff16815260200191505060206040518083038186803b15801561032b57600080fd5b505afa15801561033f573d6000803e3d6000fd5b505050506040513d602081101561035557600080fd5b81019080805190602001909291905050501015151561037357600080fd5b80600960009054906101000a900473ffffffffffffffffffffffffffffffffffffffff1673ffffffffffffffffffffffffffffffffffffffff166370a08231846040518263ffffffff167c0100000000000000000000000000000000000000000000000000000000028152600401808273ffffffffffffffffffffffffffffffffffffffff1673ffffffffffffffffffffffffffffffffffffffff16815260200191505060206040518083038186803b15801561042f57600080fd5b505afa158015610443573d6000803e3d6000fd5b505050506040513d602081101561045957600080fd5b81019080805190602001909291905050501015151561047757600080fd5b8273ffffffffffffffffffffffffffffffffffffffff163373ffffffffffffffffffffffffffffffffffffffff1614806104dc57508173ffffffffffffffffffffffffffffffffffffffff163373ffffffffffffffffffffffffffffffffffffffff16145b15156104e757600080fd5b6104f084610708565b1515156104fc57600080fd5b60006001600760c0604051908101604052808881526020018773ffffffffffffffffffffffffffffffffffffffff1681526020018673ffffffffffffffffffffffffffffffffffffffff1681526020016000600181111561055957fe5b8152602001858152602001600073ffffffffffffffffffffffffffffffffffffffff16815250908060018154018082558091505090600182039060005260206000209060050201600090919290919091506000820151816000015560208201518160010160006101000a81548173ffffffffffffffffffffffffffffffffffffffff021916908373ffffffffffffffffffffffffffffffffffffffff16021790555060408201518160020160006101000a81548173ffffffffffffffffffffffffffffffffffffffff021916908373ffffffffffffffffffffffffffffffffffffffff16021790555060608201518160020160146101000a81548160ff0219169083600181111561066657fe5b02179055506080820151816003015560a08201518160040160006101000a81548173ffffffffffffffffffffffffffffffffffffffff021916908373ffffffffffffffffffffffffffffffffffffffff16021790555050500390506001810160086000878152602001908152602001600020819055505050505050565b6000809054906101000a900473ffffffffffffffffffffffffffffffffffffffff1681565b60008060078054905014156107205760009050610740565b600060086000848152602001908152602001600020549050600081119150505b919050565b6000809054906101000a900473ffffffffffffffffffffffffffffffffffffffff1673ffffffffffffffffffffffffffffffffffffffff163373ffffffffffffffffffffffffffffffffffffffff161415156107a057600080fd5b600073ffffffffffffffffffffffffffffffffffffffff168173ffffffffffffffffffffffffffffffffffffffff16141515156107dc57600080fd5b8073ffffffffffffffffffffffffffffffffffffffff166000809054906101000a900473ffffffffffffffffffffffffffffffffffffffff1673ffffffffffffffffffffffffffffffffffffffff167f8be0079c531659141344cd1fd0a4f28419497f9722a3daafe3b4186f6b6457e060405160405180910390a3806000806101000a81548173ffffffffffffffffffffffffffffffffffffffff021916908373ffffffffffffffffffffffffffffffffffffffff1602179055505056fea165627a7a723058200888779e24c8f8c6b664979c873ac8dff6a8102dd086ea96dbffc65cea1be3ed0029",
  "source": "pragma solidity >=0.4.22 <0.8.0;\r\n\r\nimport './Ownable.sol';\r\nimport \"@chainlink/contracts/src/v0.5/ChainlinkClient.sol\";\r\nimport './UGameToken.sol';\r\n\r\ncontract Oracle is Ownable, ChainlinkClient {\r\n    Match[] matches;\r\n    mapping(bytes32 => uint) matchIdToIndex; \r\n    UGameToken public tokenCotract;\r\n\r\n    enum MatchOutcome {\r\n        Planned,\r\n        Finished\r\n    }\r\n\r\n    struct Match {\r\n        bytes32 id;\r\n        address player1;\r\n        address player2;\r\n        MatchOutcome outcome;\r\n        uint256 matchValue;\r\n        address winner;\r\n    }\r\n\r\n    constructor(UGameToken _tokenContract) public {\r\n        tokenCotract = _tokenContract;\r\n    }\r\n\r\n    // function getMatch(bytes32 _id) public returns (bytes32 id,\r\n    //     address player1,\r\n    //     address player2,\r\n    //     MatchOutcome outcome,\r\n    //     bytes32 externalId);\r\n\r\n    // function getMatches() public returns (bytes32[] memory ids);\r\n    \r\n    function _getMatchIndex(bytes32 _matchId) private view returns (uint) {\r\n        return matchIdToIndex[_matchId]-1; \r\n    }\r\n\r\n    function matchExists(bytes32 _matchId) public view returns (bool) {\r\n        if (matches.length == 0)\r\n            return false;\r\n        uint index = matchIdToIndex[_matchId]; \r\n        return (index > 0); \r\n    }\r\n\r\n    function addMatch(bytes32 _id, address _player1, address _player2, uint256 _matchValue) public {\r\n        require(tokenCotract.balanceOf(_player1) >= _matchValue);\r\n        require(tokenCotract.balanceOf(_player2) >= _matchValue);\r\n        require(msg.sender == _player1 || msg.sender == _player2);\r\n        require(!matchExists(_id));\r\n\r\n        uint newIndex = matches.push(Match(_id, _player1, _player2, MatchOutcome.Planned, _matchValue, address(0x0))) - 1; \r\n        matchIdToIndex[_id] = newIndex + 1;\r\n    }\r\n}",
  "sourcePath": "C:\\Projects\\ERC20Draft\\contracts\\Oracle.sol",
  "compiler": {
    "name": "solc",
    "version": "0.5.0+commit.1d4f565a.Emscripten.clang"
  },
  "schemaVersion": "3.3.2",
  "updatedAt": "2020-11-22T10:41:20.350Z",
  "networkType": "ethereum",
  "devdoc": {
    "methods": {}
  },
  "userdoc": {
    "methods": {}
  }
}