{
  "contractName": "Oracle",
  "abi": [
    {
      "inputs": [
        {
          "internalType": "contract UGameToken",
          "name": "_tokenContract",
          "type": "address"
        }
      ],
      "payable": false,
      "stateMutability": "nonpayable",
      "type": "constructor"
    },
    {
      "anonymous": false,
      "inputs": [
        {
          "indexed": true,
          "internalType": "bytes32",
          "name": "id",
          "type": "bytes32"
        }
      ],
      "name": "ChainlinkCancelled",
      "type": "event"
    },
    {
      "anonymous": false,
      "inputs": [
        {
          "indexed": true,
          "internalType": "bytes32",
          "name": "id",
          "type": "bytes32"
        }
      ],
      "name": "ChainlinkFulfilled",
      "type": "event"
    },
    {
      "anonymous": false,
      "inputs": [
        {
          "indexed": true,
          "internalType": "bytes32",
          "name": "id",
          "type": "bytes32"
        }
      ],
      "name": "ChainlinkRequested",
      "type": "event"
    },
    {
      "anonymous": false,
      "inputs": [
        {
          "indexed": true,
          "internalType": "address",
          "name": "_by",
          "type": "address"
        },
        {
          "indexed": false,
          "internalType": "address",
          "name": "_player1",
          "type": "address"
        },
        {
          "indexed": false,
          "internalType": "address",
          "name": "_player2",
          "type": "address"
        },
        {
          "indexed": true,
          "internalType": "bytes32",
          "name": "_matchId",
          "type": "bytes32"
        },
        {
          "indexed": false,
          "internalType": "uint256",
          "name": "_matchValue",
          "type": "uint256"
        }
      ],
      "name": "MatchAdded",
      "type": "event"
    },
    {
      "anonymous": false,
      "inputs": [
        {
          "indexed": true,
          "internalType": "address",
          "name": "_by",
          "type": "address"
        },
        {
          "indexed": true,
          "internalType": "bytes32",
          "name": "_matchId",
          "type": "bytes32"
        },
        {
          "indexed": false,
          "internalType": "address",
          "name": "_winner",
          "type": "address"
        }
      ],
      "name": "MatchFinished",
      "type": "event"
    },
    {
      "anonymous": false,
      "inputs": [
        {
          "indexed": true,
          "internalType": "address",
          "name": "previousOwner",
          "type": "address"
        },
        {
          "indexed": true,
          "internalType": "address",
          "name": "newOwner",
          "type": "address"
        }
      ],
      "name": "OwnershipTransferred",
      "type": "event"
    },
    {
      "constant": true,
      "inputs": [],
      "name": "owner",
      "outputs": [
        {
          "internalType": "address",
          "name": "",
          "type": "address"
        }
      ],
      "payable": false,
      "stateMutability": "view",
      "type": "function"
    },
    {
      "constant": true,
      "inputs": [],
      "name": "tokenCotract",
      "outputs": [
        {
          "internalType": "contract UGameToken",
          "name": "",
          "type": "address"
        }
      ],
      "payable": false,
      "stateMutability": "view",
      "type": "function"
    },
    {
      "constant": false,
      "inputs": [
        {
          "internalType": "address",
          "name": "newOwner",
          "type": "address"
        }
      ],
      "name": "transferOwnership",
      "outputs": [],
      "payable": false,
      "stateMutability": "nonpayable",
      "type": "function"
    },
    {
      "constant": true,
      "inputs": [
        {
          "internalType": "bytes32",
          "name": "_matchId",
          "type": "bytes32"
        }
      ],
      "name": "getMatch",
      "outputs": [
        {
          "internalType": "bytes32",
          "name": "id",
          "type": "bytes32"
        },
        {
          "internalType": "address",
          "name": "player1",
          "type": "address"
        },
        {
          "internalType": "address",
          "name": "player2",
          "type": "address"
        },
        {
          "internalType": "enum Oracle.MatchOutcome",
          "name": "outcome",
          "type": "uint8"
        },
        {
          "internalType": "uint256",
          "name": "matchValue",
          "type": "uint256"
        },
        {
          "internalType": "address",
          "name": "winner",
          "type": "address"
        },
        {
          "internalType": "bool",
          "name": "player1Payed",
          "type": "bool"
        },
        {
          "internalType": "bool",
          "name": "player2Payed",
          "type": "bool"
        }
      ],
      "payable": false,
      "stateMutability": "view",
      "type": "function"
    },
    {
      "constant": true,
      "inputs": [],
      "name": "getMatches",
      "outputs": [
        {
          "internalType": "bytes32[]",
          "name": "ids",
          "type": "bytes32[]"
        }
      ],
      "payable": false,
      "stateMutability": "view",
      "type": "function"
    },
    {
      "constant": true,
      "inputs": [
        {
          "internalType": "bytes32",
          "name": "_matchId",
          "type": "bytes32"
        }
      ],
      "name": "matchExists",
      "outputs": [
        {
          "internalType": "bool",
          "name": "",
          "type": "bool"
        }
      ],
      "payable": false,
      "stateMutability": "view",
      "type": "function"
    },
    {
      "constant": false,
      "inputs": [
        {
          "internalType": "bytes32",
          "name": "_id",
          "type": "bytes32"
        },
        {
          "internalType": "address",
          "name": "_player1",
          "type": "address"
        },
        {
          "internalType": "address",
          "name": "_player2",
          "type": "address"
        },
        {
          "internalType": "uint256",
          "name": "_matchValue",
          "type": "uint256"
        }
      ],
      "name": "addMatch",
      "outputs": [],
      "payable": false,
      "stateMutability": "nonpayable",
      "type": "function"
    },
    {
      "constant": false,
      "inputs": [
        {
          "internalType": "string",
          "name": "_id",
          "type": "string"
        },
        {
          "internalType": "address",
          "name": "_player1",
          "type": "address"
        },
        {
          "internalType": "address",
          "name": "_player2",
          "type": "address"
        },
        {
          "internalType": "uint256",
          "name": "_matchValue",
          "type": "uint256"
        }
      ],
      "name": "addMatchByid",
      "outputs": [],
      "payable": false,
      "stateMutability": "nonpayable",
      "type": "function"
    },
    {
      "constant": true,
      "inputs": [
        {
          "internalType": "bytes32",
          "name": "_matchId",
          "type": "bytes32"
        },
        {
          "internalType": "address",
          "name": "_player",
          "type": "address"
        }
      ],
      "name": "playerInMatchAndNotPayed",
      "outputs": [
        {
          "internalType": "bool",
          "name": "",
          "type": "bool"
        }
      ],
      "payable": false,
      "stateMutability": "view",
      "type": "function"
    },
    {
      "constant": false,
      "inputs": [
        {
          "internalType": "bytes32",
          "name": "_matchId",
          "type": "bytes32"
        }
      ],
      "name": "payForBet",
      "outputs": [],
      "payable": true,
      "stateMutability": "payable",
      "type": "function"
    },
    {
      "constant": false,
      "inputs": [
        {
          "internalType": "string",
          "name": "_matchId",
          "type": "string"
        },
        {
          "internalType": "address",
          "name": "_winner",
          "type": "address"
        }
      ],
      "name": "updateOracle",
      "outputs": [],
      "payable": false,
      "stateMutability": "nonpayable",
      "type": "function"
    }
  ],
  "bytecode": "0x608060405260016005553480156200001657600080fd5b5060405162001c0538038062001c05833981810160405260208110156200003c57600080fd5b8101908080519060200190929190505050336000806101000a81548173ffffffffffffffffffffffffffffffffffffffff021916908373ffffffffffffffffffffffffffffffffffffffff16021790555080600960006101000a81548173ffffffffffffffffffffffffffffffffffffffff021916908373ffffffffffffffffffffffffffffffffffffffff16021790555033600a60006101000a81548173ffffffffffffffffffffffffffffffffffffffff021916908373ffffffffffffffffffffffffffffffffffffffff1602179055506200011f620001b160201b60201c565b732f90a6d021db21e1b2a077c5a37b3c7e75d15b7e600b60006101000a81548173ffffffffffffffffffffffffffffffffffffffff021916908373ffffffffffffffffffffffffffffffffffffffff1602179055507f3239666139616131336266313436383738386237636334613530306134356238600c8190555067016345785d8a0000600d81905550506200029f565b6200025973c89bd4e1632d3a43cb03aaad5262cbe4038bc57173ffffffffffffffffffffffffffffffffffffffff166338cc48316040518163ffffffff1660e01b815260040160206040518083038186803b1580156200021057600080fd5b505afa15801562000225573d6000803e3d6000fd5b505050506040513d60208110156200023c57600080fd5b81019080805190602001909291905050506200025b60201b60201c565b565b80600360006101000a81548173ffffffffffffffffffffffffffffffffffffffff021916908373ffffffffffffffffffffffffffffffffffffffff16021790555050565b61195680620002af6000396000f3fe60806040526004361061009c5760003560e01c806389acb32a1161006457806389acb32a1461038c5780638da5cb5b14610411578063a825232414610468578063a9345240146104db578063f2fde38b1461052e578063fcc6077d1461057f5761009c565b806324b8b845146100a15780632c70120e146101895780635af4344d146101f55780636a2c0bc41461030757806373f9644b1461035e575b600080fd5b3480156100ad57600080fd5b50610187600480360360408110156100c457600080fd5b81019080803590602001906401000000008111156100e157600080fd5b8201836020820111156100f357600080fd5b8035906020019184600183028401116401000000008311171561011557600080fd5b91908080601f016020809104026020016040519081016040528093929190818152602001838380828437600081840152601f19601f820116905080830192505050505050509192919290803573ffffffffffffffffffffffffffffffffffffffff169060200190929190505050610699565b005b34801561019557600080fd5b5061019e610d61565b6040518080602001828103825283818151815260200191508051906020019060200280838360005b838110156101e15780820151818401526020810190506101c6565b505050509050019250505060405180910390f35b34801561020157600080fd5b506103056004803603608081101561021857600080fd5b810190808035906020019064010000000081111561023557600080fd5b82018360208201111561024757600080fd5b8035906020019184600183028401116401000000008311171561026957600080fd5b91908080601f016020809104026020016040519081016040528093929190818152602001838380828437600081840152601f19601f820116905080830192505050505050509192919290803573ffffffffffffffffffffffffffffffffffffffff169060200190929190803573ffffffffffffffffffffffffffffffffffffffff16906020019092919080359060200190929190505050610e18565b005b34801561031357600080fd5b5061031c610ea1565b604051808273ffffffffffffffffffffffffffffffffffffffff1673ffffffffffffffffffffffffffffffffffffffff16815260200191505060405180910390f35b61038a6004803603602081101561037457600080fd5b8101908080359060200190929190505050610ec7565b005b34801561039857600080fd5b5061040f600480360360808110156103af57600080fd5b8101908080359060200190929190803573ffffffffffffffffffffffffffffffffffffffff169060200190929190803573ffffffffffffffffffffffffffffffffffffffff16906020019092919080359060200190929190505050611147565b005b34801561041d57600080fd5b5061042661144a565b604051808273ffffffffffffffffffffffffffffffffffffffff1673ffffffffffffffffffffffffffffffffffffffff16815260200191505060405180910390f35b34801561047457600080fd5b506104c16004803603604081101561048b57600080fd5b8101908080359060200190929190803573ffffffffffffffffffffffffffffffffffffffff16906020019092919050505061146f565b604051808215151515815260200191505060405180910390f35b3480156104e757600080fd5b50610514600480360360208110156104fe57600080fd5b81019080803590602001909291905050506115f4565b604051808215151515815260200191505060405180910390f35b34801561053a57600080fd5b5061057d6004803603602081101561055157600080fd5b81019080803573ffffffffffffffffffffffffffffffffffffffff169060200190929190505050611631565b005b34801561058b57600080fd5b506105b8600480360360208110156105a257600080fd5b8101908080359060200190929190505050611782565b604051808981526020018873ffffffffffffffffffffffffffffffffffffffff1673ffffffffffffffffffffffffffffffffffffffff1681526020018773ffffffffffffffffffffffffffffffffffffffff1673ffffffffffffffffffffffffffffffffffffffff16815260200186600181111561063257fe5b60ff1681526020018581526020018473ffffffffffffffffffffffffffffffffffffffff1673ffffffffffffffffffffffffffffffffffffffff16815260200183151515158152602001821515151581526020019850505050505050505060405180910390f35b6000826040516020018082805190602001908083835b602083106106d257805182526020820191506020810190506020830392506106af565b6001836020036101000a038019825116818451168082178552505050505050905001915050604051602081830303815290604052805190602001209050610718816115f4565b61072157600080fd5b6000600860008381526020019081526020016000205490506000600181111561074657fe5b6007828154811061075357fe5b906000526020600020906005020160020160149054906101000a900460ff16600181111561077d57fe5b1461078757600080fd5b6007818154811061079457fe5b906000526020600020906005020160010160009054906101000a900473ffffffffffffffffffffffffffffffffffffffff1673ffffffffffffffffffffffffffffffffffffffff168373ffffffffffffffffffffffffffffffffffffffff16148061086857506007818154811061080757fe5b906000526020600020906005020160020160009054906101000a900473ffffffffffffffffffffffffffffffffffffffff1673ffffffffffffffffffffffffffffffffffffffff168373ffffffffffffffffffffffffffffffffffffffff16145b15610ced57826007828154811061087b57fe5b906000526020600020906005020160040160006101000a81548173ffffffffffffffffffffffffffffffffffffffff021916908373ffffffffffffffffffffffffffffffffffffffff1602179055506000600782815481106108d957fe5b906000526020600020906005020160020160146101000a81548160ff0219169083600181111561090557fe5b02179055506007818154811061091757fe5b906000526020600020906005020160010160009054906101000a900473ffffffffffffffffffffffffffffffffffffffff1673ffffffffffffffffffffffffffffffffffffffff168373ffffffffffffffffffffffffffffffffffffffff161415610b3457600960009054906101000a900473ffffffffffffffffffffffffffffffffffffffff1673ffffffffffffffffffffffffffffffffffffffff166323b872dd600783815481106109c757fe5b906000526020600020906005020160010160009054906101000a900473ffffffffffffffffffffffffffffffffffffffff1660078481548110610a0657fe5b906000526020600020906005020160020160009054906101000a900473ffffffffffffffffffffffffffffffffffffffff1660078581548110610a4557fe5b9060005260206000209060050201600301546040518463ffffffff1660e01b8152600401808473ffffffffffffffffffffffffffffffffffffffff1673ffffffffffffffffffffffffffffffffffffffff1681526020018373ffffffffffffffffffffffffffffffffffffffff1673ffffffffffffffffffffffffffffffffffffffff1681526020018281526020019350505050602060405180830381600087803b158015610af357600080fd5b505af1158015610b07573d6000803e3d6000fd5b505050506040513d6020811015610b1d57600080fd5b810190808051906020019092919050505050610ce8565b600960009054906101000a900473ffffffffffffffffffffffffffffffffffffffff1673ffffffffffffffffffffffffffffffffffffffff166323b872dd60078381548110610b7f57fe5b906000526020600020906005020160020160009054906101000a900473ffffffffffffffffffffffffffffffffffffffff1660078481548110610bbe57fe5b906000526020600020906005020160010160009054906101000a900473ffffffffffffffffffffffffffffffffffffffff1660078581548110610bfd57fe5b9060005260206000209060050201600301546040518463ffffffff1660e01b8152600401808473ffffffffffffffffffffffffffffffffffffffff1673ffffffffffffffffffffffffffffffffffffffff1681526020018373ffffffffffffffffffffffffffffffffffffffff1673ffffffffffffffffffffffffffffffffffffffff1681526020018281526020019350505050602060405180830381600087803b158015610cab57600080fd5b505af1158015610cbf573d6000803e3d6000fd5b505050506040513d6020811015610cd557600080fd5b8101908080519060200190929190505050505b610d5b565b6040517f08c379a00000000000000000000000000000000000000000000000000000000081526004018080602001828103825260168152602001807f57696e6e6572206e6f74207061727469636970616e740000000000000000000081525060200191505060405180910390fd5b50505050565b6060600780549050604051908082528060200260200182016040528015610d975781602001602082028038833980820191505090505b50905060006007805490501115610e12576000809050600060078054905090505b6000811115610e0f5760076001820381548110610dd157fe5b906000526020600020906005020160000154838380600101945081518110610df557fe5b602002602001018181525050808060019003915050610db8565b50505b80905090565b6000846040516020018082805190602001908083835b60208310610e515780518252602082019150602081019050602083039250610e2e565b6001836020036101000a038019825116818451168082178552505050505050905001915050604051602081830303815290604052805190602001209050610e9a81858585611147565b5050505050565b600960009054906101000a900473ffffffffffffffffffffffffffffffffffffffff1681565b610ed0816115f4565b610ed957600080fd5b610ee3813361146f565b610eec57600080fd5b600060086000838152602001908152602001600020549050600960009054906101000a900473ffffffffffffffffffffffffffffffffffffffff1673ffffffffffffffffffffffffffffffffffffffff166323b872dd33600a60009054906101000a900473ffffffffffffffffffffffffffffffffffffffff1660078581548110610f7357fe5b9060005260206000209060050201600301546040518463ffffffff1660e01b8152600401808473ffffffffffffffffffffffffffffffffffffffff1673ffffffffffffffffffffffffffffffffffffffff1681526020018373ffffffffffffffffffffffffffffffffffffffff1673ffffffffffffffffffffffffffffffffffffffff1681526020018281526020019350505050602060405180830381600087803b15801561102157600080fd5b505af1158015611035573d6000803e3d6000fd5b505050506040513d602081101561104b57600080fd5b8101908080519060200190929190505050506007818154811061106a57fe5b906000526020600020906005020160010160009054906101000a900473ffffffffffffffffffffffffffffffffffffffff1673ffffffffffffffffffffffffffffffffffffffff163373ffffffffffffffffffffffffffffffffffffffff16141561110b576001600782815481106110de57fe5b906000526020600020906005020160040160146101000a81548160ff021916908315150217905550611143565b60016007828154811061111a57fe5b906000526020600020906005020160040160156101000a81548160ff0219169083151502179055505b5050565b611150846115f4565b1561115a57600080fd5b6000600160076040518061010001604052808881526020018773ffffffffffffffffffffffffffffffffffffffff1681526020018673ffffffffffffffffffffffffffffffffffffffff168152602001600060018111156111b757fe5b8152602001858152602001600073ffffffffffffffffffffffffffffffffffffffff16815260200160001515815260200160001515815250908060018154018082558091505090600182039060005260206000209060050201600090919290919091506000820151816000015560208201518160010160006101000a81548173ffffffffffffffffffffffffffffffffffffffff021916908373ffffffffffffffffffffffffffffffffffffffff16021790555060408201518160020160006101000a81548173ffffffffffffffffffffffffffffffffffffffff021916908373ffffffffffffffffffffffffffffffffffffffff16021790555060608201518160020160146101000a81548160ff021916908360018111156112d657fe5b02179055506080820151816003015560a08201518160040160006101000a81548173ffffffffffffffffffffffffffffffffffffffff021916908373ffffffffffffffffffffffffffffffffffffffff16021790555060c08201518160040160146101000a81548160ff02191690831515021790555060e08201518160040160156101000a81548160ff0219169083151502179055505050039050600181016008600087815260200190815260200160002081905550843373ffffffffffffffffffffffffffffffffffffffff167f10cc98c26c76bf6470a328df31ee0ae7797a6a43eeed3cfe8f7518b255b0f130868686604051808473ffffffffffffffffffffffffffffffffffffffff1673ffffffffffffffffffffffffffffffffffffffff1681526020018373ffffffffffffffffffffffffffffffffffffffff1673ffffffffffffffffffffffffffffffffffffffff168152602001828152602001935050505060405180910390a35050505050565b6000809054906101000a900473ffffffffffffffffffffffffffffffffffffffff1681565b600080600780549050141561148757600090506115ee565b6000600860008581526020019081526020016000205490508273ffffffffffffffffffffffffffffffffffffffff16600782815481106114c357fe5b906000526020600020906005020160010160009054906101000a900473ffffffffffffffffffffffffffffffffffffffff1673ffffffffffffffffffffffffffffffffffffffff1614801561154157506007818154811061152057fe5b906000526020600020906005020160040160149054906101000a900460ff16155b806115ea57508273ffffffffffffffffffffffffffffffffffffffff166007828154811061156b57fe5b906000526020600020906005020160020160009054906101000a900473ffffffffffffffffffffffffffffffffffffffff1673ffffffffffffffffffffffffffffffffffffffff161480156115e95750600781815481106115c857fe5b906000526020600020906005020160040160159054906101000a900460ff16155b5b9150505b92915050565b600080600780549050141561160c576000905061162c565b600060086000848152602001908152602001600020549050600081119150505b919050565b6000809054906101000a900473ffffffffffffffffffffffffffffffffffffffff1673ffffffffffffffffffffffffffffffffffffffff163373ffffffffffffffffffffffffffffffffffffffff161461168a57600080fd5b600073ffffffffffffffffffffffffffffffffffffffff168173ffffffffffffffffffffffffffffffffffffffff1614156116c457600080fd5b8073ffffffffffffffffffffffffffffffffffffffff166000809054906101000a900473ffffffffffffffffffffffffffffffffffffffff1673ffffffffffffffffffffffffffffffffffffffff167f8be0079c531659141344cd1fd0a4f28419497f9722a3daafe3b4186f6b6457e060405160405180910390a3806000806101000a81548173ffffffffffffffffffffffffffffffffffffffff021916908373ffffffffffffffffffffffffffffffffffffffff16021790555050565b600080600080600080600080611797896115f4565b1561188857600060076117a98b611901565b815481106117b357fe5b9060005260206000209060050201905080600001548160010160009054906101000a900473ffffffffffffffffffffffffffffffffffffffff168260020160009054906101000a900473ffffffffffffffffffffffffffffffffffffffff168360020160149054906101000a900460ff1684600301548560040160009054906101000a900473ffffffffffffffffffffffffffffffffffffffff168660040160149054906101000a900460ff168760040160159054906101000a900460ff1698509850985098509850985098509850506118f6565b6040517f08c379a00000000000000000000000000000000000000000000000000000000081526004018080602001828103825260158152602001807f4d61746368206e6f7420666f756e64206279206964000000000000000000000081525060200191505060405180910390fd5b919395975091939597565b60006001600860008481526020019081526020016000205403905091905056fea265627a7a723158201afd132d6f16ed4727f23f18370bef20840ab37408f4d014bc33293788133e2a64736f6c63430005100032",
  "source": "pragma solidity >=0.4.22 <0.8.0;\r\n\r\nimport './Ownable.sol';\r\nimport \"@chainlink/contracts/src/v0.5/ChainlinkClient.sol\";\r\nimport './UGameToken.sol';\r\n\r\ncontract Oracle is Ownable, ChainlinkClient {\r\n    Match[] matches;\r\n    mapping(bytes32 => uint) matchIdToIndex; \r\n\r\n    event MatchAdded (\r\n        address indexed _by,\r\n        address _player1,\r\n        address _player2,\r\n        bytes32 indexed _matchId,\r\n        uint256 _matchValue\r\n    );\r\n\r\n    event MatchFinished(\r\n        address indexed _by,\r\n        bytes32 indexed _matchId,\r\n        address _winner\r\n    );\r\n\r\n    enum MatchOutcome {\r\n        Planned,\r\n        Finished\r\n    }\r\n\r\n    struct Match {\r\n        bytes32 id;\r\n        address player1;\r\n        address player2;\r\n        MatchOutcome outcome;\r\n        uint256 matchValue;\r\n        address winner;\r\n        bool player1Payed;\r\n        bool player2Payed;\r\n    }\r\n\r\n    UGameToken public tokenCotract;\r\n    address payable internal admin;\r\n\r\n    address private oracle;\r\n    bytes32 private jobId;\r\n    uint256 private fee;\r\n\r\n    constructor(UGameToken _tokenContract) public {\r\n        tokenCotract = _tokenContract;\r\n        admin = msg.sender;\r\n        setPublicChainlinkToken();\r\n\r\n        // Change in future!\r\n        oracle = 0x2f90A6D021db21e1B2A077c5a37B3C7E75D15b7e;\r\n        jobId = \"29fa9aa13bf1468788b7cc4a500a45b8\";\r\n        fee = 0.1 * 10 ** 18; \r\n    }\r\n\r\n    function getMatch(bytes32 _matchId) public view returns (bytes32 id,\r\n        address player1,\r\n        address player2,\r\n        MatchOutcome outcome,\r\n        uint256 matchValue,\r\n        address winner,\r\n        bool player1Payed,\r\n        bool player2Payed)\r\n    {\r\n        if (matchExists(_matchId)) {\r\n            Match storage matchFound = matches[_getMatchIndex(_matchId)];\r\n            return (matchFound.id, \r\n                    matchFound.player1, \r\n                    matchFound.player2, \r\n                    matchFound.outcome, \r\n                    matchFound.matchValue, \r\n                    matchFound.winner,\r\n                    matchFound.player1Payed,\r\n                    matchFound.player2Payed); \r\n        }\r\n        else {\r\n            revert('Match not found by id'); \r\n        }\r\n    }\r\n    \r\n    function getMatches() public view returns (bytes32[] memory ids)\r\n    {\r\n        ids = new bytes32[](matches.length); \r\n\r\n        if (matches.length > 0) {\r\n            uint index = 0;\r\n            for (uint n = matches.length; n > 0; n--) {\r\n                ids[index++] = matches[n-1].id;\r\n            }\r\n        }\r\n        \r\n        return ids; \r\n    }\r\n\r\n    function _updateMatches() private {\r\n        // Update\r\n    }\r\n    \r\n    function _getMatchIndex(bytes32 _matchId) private view returns (uint) {\r\n        return matchIdToIndex[_matchId]-1; \r\n    }\r\n\r\n    function matchExists(bytes32 _matchId) public view returns (bool) {\r\n        if (matches.length == 0)\r\n            return false;\r\n        uint index = matchIdToIndex[_matchId]; \r\n        return (index > 0); \r\n    }\r\n\r\n    function addMatch(bytes32 _id, address _player1, address _player2, uint256 _matchValue) public {\r\n        require(!matchExists(_id));\r\n        \r\n        uint newIndex = matches.push(Match(_id, _player1, _player2, MatchOutcome.Planned, _matchValue, address(0x0), false, false)) - 1; \r\n        matchIdToIndex[_id] = newIndex + 1;\r\n        emit MatchAdded(msg.sender, _player1, _player2, _id, _matchValue);\r\n    }\r\n\r\n    function addMatchByid(string memory _id, address _player1, address _player2, uint256 _matchValue) public {\r\n        //require(msg.sender == _player1 || msg.sender == _player2);\r\n        bytes32 genId = keccak256(abi.encodePacked(_id));\r\n        addMatch(genId, _player1, _player2, _matchValue);\r\n    }\r\n\r\n    function playerInMatchAndNotPayed(bytes32 _matchId, address _player) public view returns (bool) {\r\n        if (matches.length == 0)\r\n            return false;\r\n        uint index = matchIdToIndex[_matchId]; \r\n\r\n        return (matches[index].player1 == _player && !matches[index].player1Payed) || (matches[index].player2 == _player && !matches[index].player2Payed);\r\n    }\r\n\r\n    function payForBet(bytes32 _matchId) public payable {\r\n        require(matchExists(_matchId));\r\n        require(playerInMatchAndNotPayed(_matchId, msg.sender));\r\n\r\n        uint index = matchIdToIndex[_matchId]; \r\n\r\n        tokenCotract.transferFrom(msg.sender, admin, matches[index].matchValue);\r\n        if (msg.sender == matches[index].player1) {\r\n            matches[index].player1Payed = true;\r\n        } else {\r\n            matches[index].player2Payed = true;\r\n        }\r\n    }\r\n    // For test only\r\n    function updateOracle(string memory _matchId, address _winner) public {\r\n        bytes32 genId = keccak256(abi.encodePacked(_matchId));\r\n        require(matchExists(genId));\r\n        uint index = matchIdToIndex[genId];\r\n        require(matches[index].outcome == MatchOutcome.Planned); \r\n\r\n        if (_winner == matches[index].player1 || _winner == matches[index].player2) {\r\n            matches[index].winner = _winner;\r\n            matches[index].outcome = MatchOutcome.Planned;\r\n\r\n            if (_winner == matches[index].player1) {\r\n                tokenCotract.transferFrom(matches[index].player1, matches[index].player2, matches[index].matchValue);\r\n            } else {\r\n                tokenCotract.transferFrom(matches[index].player2, matches[index].player1, matches[index].matchValue);\r\n            }\r\n        } else {\r\n            revert('Winner not participant');\r\n        }\r\n    }\r\n}",
  "sourcePath": "D:\\git\\UGameTokenBlockchain\\contracts\\Oracle.sol",
  "compiler": {
    "name": "solc",
    "version": "0.5.16+commit.9c3226ce.Emscripten.clang"
  },
  "schemaVersion": "3.3.2",
  "updatedAt": "2020-11-22T14:41:16.866Z",
  "devdoc": {
    "methods": {}
  },
  "userdoc": {
    "methods": {}
  }
}