{
  "contractName": "UGameToken",
  "abi": [
    {
      "inputs": [],
      "payable": false,
      "stateMutability": "nonpayable",
      "type": "constructor"
    },
    {
      "constant": true,
      "inputs": [],
      "name": "totalSupply",
      "outputs": [
        {
          "internalType": "uint256",
          "name": "",
          "type": "uint256"
        }
      ],
      "payable": false,
      "stateMutability": "view",
      "type": "function"
    }
  ],
  "bytecode": "0x6080604052348015600f57600080fd5b50623d09006000819055506084806100286000396000f3fe6080604052348015600f57600080fd5b506004361060285760003560e01c806318160ddd14602d575b600080fd5b60336049565b6040518082815260200191505060405180910390f35b6000548156fea265627a7a72315820f4f14d6a5f40e447641c198c0132d6d8f0d39753ff7f725bf5367af8c8718bd464736f6c63430005100032",
  "source": "pragma solidity ^0.5.0;\r\n\r\ncontract UGameToken {\r\n    uint256 public totalSupply;\r\n\r\n    constructor() public {\r\n        totalSupply = 4000000;\r\n    }\r\n}",
  "sourcePath": "C:/Projects/ERC20Draft/contracts/UGameToken.sol",
  "compiler": {
    "name": "solc",
    "version": "0.5.16+commit.9c3226ce.Emscripten.clang"
  },
  "schemaVersion": "3.3.2",
  "updatedAt": "2020-11-21T09:54:44.082Z",
  "networkType": "ethereum",
  "devdoc": {
    "methods": {}
  },
  "userdoc": {
    "methods": {}
  }
}